:020000040800F2
:1000000000500020C92D0008052D0008072D00080C
:10001000092D00080B2D00080D2D00080000000020
:100020000000000000000000000000000F2D00088C
:10003000112D000800000000132D0008152D0008E8
:10004000112E0008112E0008112E0008112E000894
:10005000112E0008112E0008112E0008112E000884
:10006000112E0008112E0008112E0008112E000874
:10007000112E0008112E0008112E0008112E000864
:10008000112E0008112E0008192D0008112E00084D
:10009000112E0008112E0008112E0008112E000844
:1000A000112E0008112E0008112E0008112E000834
:1000B000B9290008112E0008112E0008112E000881
:1000C000112E0008112E0008112E0008112E000814
:1000D000112E0008252D0008112E0008112E0008F1
:1000E000312D0008112E0008112E0008000000001C
:1000F0000000000000000000000000000000000000
:0C01000000000000000000005FF808F1A3
:1001100010B5054C237833B9044B13B10448AFF341
:1001200000800123237010BD740000200000000037
:10013000F036000808B5034B1BB103490348AFF381
:10014000008008BD0000000078000020F0360008A4
:10015000034613F8012B002AFBD1181A0138704707
:1001600081F0004102E000BF83F0004330B54FEA68
:1001700041044FEA430594EA050F08BF90EA020FD5
:100180001FBF54EA000C55EA020C7FEA645C7FEA68
:10019000655C00F0E2804FEA5454D4EB5555B8BF8B
:1001A0006D420CDD2C4480EA020281EA030382EAFC
:1001B000000083EA010180EA020281EA0303362D8E
:1001C00088BF30BD11F0004F4FEA01314FF4801C61
:1001D0004CEA113102D0404261EB410113F0004F73
:1001E0004FEA03334CEA133302D0524263EB43032A
:1001F00094EA050F00F0A780A4F10104D5F1200EC8
:100200000DDB02FA0EFC22FA05F2801841F1000122
:1002100003FA0EF2801843FA05F359410EE0A5F1F6
:1002200020050EF1200E012A03FA0EFC28BF4CF027
:10023000020C43FA05F3C01851EBE37101F00045DD
:1002400007D54FF0000EDCF1000C7EEB00006EEBEA
:100250000101B1F5801F1BD3B1F5001F0CD3490874
:100260005FEA30004FEA3C0C04F101044FEA4452CB
:1002700012F5800F80F09A80BCF1004F08BF5FEA52
:10028000500C50F1000041EB045141EA050130BD32
:100290005FEA4C0C404141EB010111F4801FA4F1D5
:1002A0000104E9D191F0000F04BF01460020B1FA2A
:1002B00081F308BF2033A3F10B03B3F120020CDA62
:1002C0000C3208DD02F1140CC2F10C0201FA0CF040
:1002D00021FA02F10CE002F11402D8BFC2F1200CA5
:1002E00001FA02F120FA0CFCDCBF41EA0C0190405B
:1002F000E41AA2BF01EB0451294330BD6FEA0404A4
:100300001F3C1CDA0C340EDC04F11404C4F120028E
:1003100020FA04F001FA02F340EA030021FA04F3A0
:1003200045EA030130BDC4F10C04C4F1200220FAF7
:1003300002F001FA04F340EA0300294630BD21FA35
:1003400004F0294630BD94F0000F83F4801306BFFB
:1003500081F480110134013D4EE77FEA645C18BFEF
:100360007FEA655C29D094EA050F08BF90EA020F86
:1003700005D054EA000C04BF1946104630BD91EA7E
:10038000030F1EBF0021002030BD5FEA545C05D181
:100390004000494128BF41F0004130BD14F58004C0
:1003A0003CBF01F5801130BD01F0004545F0FE4134
:1003B00041F470014FF0000030BD7FEA645C1ABF69
:1003C000194610467FEA655C1CBF0B46024650EAA0
:1003D000013406BF52EA033591EA030F41F40021CC
:1003E00030BD00BF90F0000F04BF0021704730B552
:1003F0004FF4806404F132044FF000054FF0000127
:1004000050E700BF90F0000F04BF0021704730B5E7
:100410004FF4806404F1320410F0004548BF4042BC
:100420004FF000013EE700BF42004FEAE2014FEA11
:1004300031014FEA02701FBF12F07F4393F07F4FEC
:1004400081F06051704792F0000F14BF93F07F4F1E
:10045000704730B54FF4607401F0004521F0004161
:1004600020E700BF50EA010208BF704730B54FF0E7
:1004700000050AE050EA010208BF704730B511F0EC
:10048000004502D5404261EB41014FF4806404F124
:1004900032045FEA915C3FF4DCAE4FF003025FEAA6
:1004A000DC0C18BF03325FEADC0C18BF033202EB2E
:1004B000DC02C2F1200300FA03FC20FA02F001FA88
:1004C00003FE40EA0E0021FA02F11444C1E600BF27
:1004D00070B54FF0FF0C4CF4E06C1CEA11541DBFDA
:1004E0001CEA135594EA0C0F95EA0C0F00F0DEF8A5
:1004F0002C4481EA030621EA4C5123EA4C5350EA8A
:10050000013518BF52EA033541F4801143F48013DA
:1005100038D0A0FB02CE4FF00005E1FB02E506F06B
:100520000042E0FB03E54FF00006E1FB03569CF0C0
:10053000000F18BF4EF0010EA4F1FF04B6F5007FC6
:1005400064F5407404D25FEA4E0E6D4146EB060638
:1005500042EAC62141EA55514FEAC52040EA5E50C1
:100560004FEACE2EB4F1FD0C88BFBCF5E06F1ED86B
:10057000BEF1004F08BF5FEA500E50F1000041EBA2
:10058000045170BD06F0004646EA010140EA02004F
:1005900081EA0301B4EB5C04C2BFD4EB0C0541EA71
:1005A000045170BD41F480114FF0000E013C00F386
:1005B000AB8014F1360FDEBF002001F0004170BDAA
:1005C000C4F10004203C35DA0C341BDC04F11404C3
:1005D000C4F1200500FA05F320FA04F001FA05F24F
:1005E00040EA020001F0004221F0004110EBD3701C
:1005F00021FA04F642EB06015EEA430E08BF20EA48
:10060000D37070BDC4F10C04C4F1200500FA04F3EA
:1006100020FA05F001FA04F240EA020001F000417C
:1006200010EBD37041F100015EEA430E08BF20EAEF
:10063000D37070BDC4F1200500FA05F24EEA020E37
:1006400020FA04F301FA05F243EA020321FA04F066
:1006500001F0004121FA04F220EA020000EBD3701D
:100660005EEA430E08BF20EAD37070BD94F0000F1D
:100670000FD101F00046400041EB010111F4801F51
:1006800008BF013CF7D041EA060195F0000F18BF02
:10069000704703F00046520043EB030313F4801F3E
:1006A00008BF013DF7D043EA0603704794EA0C0FF8
:1006B0000CEA135518BF95EA0C0F0CD050EA41060E
:1006C00018BF52EA4306D1D181EA030101F000418B
:1006D0004FF0000070BD50EA410606BF10461946B3
:1006E00052EA430619D094EA0C0F02D150EA0136BF
:1006F00013D195EA0C0F05D152EA03361CBF104600
:1007000019460AD181EA030101F0004141F0FE419E
:1007100041F470014FF0000070BD41F0FE4141F422
:10072000780170BD70B54FF0FF0C4CF4E06C1CEA22
:1007300011541DBF1CEA135594EA0C0F95EA0C0FD7
:1007400000F0A7F8A4EB050481EA030E52EA033592
:100750004FEA013100F088804FEA03334FF08055B3
:1007600045EA131343EA12634FEA022245EA1115E0
:1007700045EA10654FEA00260EF000419D4208BF91
:10078000964244F1FD0404F5407402D25B084FEA3E
:100790003202B61A65EB03055B084FEA32024FF4EA
:1007A00080104FF4002CB6EB020E75EB030E22BF47
:1007B000B61A754640EA0C005B084FEA3202B6EB07
:1007C000020E75EB030E22BFB61A754640EA5C00B6
:1007D0005B084FEA3202B6EB020E75EB030E22BF46
:1007E000B61A754640EA9C005B084FEA3202B6EB47
:1007F000020E75EB030E22BFB61A754640EADC0006
:1008000055EA060E18D04FEA051545EA16754FEA67
:1008100006164FEAC30343EA52734FEAC2025FEA85
:100820001C1CC0D111F4801F0BD141EA00014FF014
:1008300000004FF0004CB6E711F4801F04BF0143E5
:100840000020B4F1FD0C88BFBCF5E06F3FF6AFAE01
:10085000B5EB030C04BFB6EB020C5FEA500C50F191
:10086000000041EB045170BD0EF0004E4EEA113114
:1008700014EB5C04C2BFD4EB0C0541EA045170BD1B
:1008800041F480114FF0000E013C90E645EA060E5F
:100890008DE60CEA135594EA0C0F08BF95EA0C0F8D
:1008A0003FF43BAF94EA0C0F0AD150EA01347FF4D5
:1008B00034AF95EA0C0F7FF425AF104619462CE7AC
:1008C00095EA0C0F06D152EA03353FF4FDAE10460F
:1008D000194622E750EA410618BF52EA43067FF460
:1008E000C5AE50EA41047FF40DAF52EA43057FF4F0
:1008F000EBAE12E74FEA410212F5001215D211D504
:100900006FF47873B3EB625212D94FEAC12343F00C
:10091000004343EA505311F0004F23FA02F018BF8E
:10092000404270474FF00000704750EA013005D157
:1009300011F0004008BF6FF0004070474FF000001A
:10094000704700BF38B50E4B054618784FF47A73E0
:10095000B3FBF0F30B4A1068B0FBF3F000F082FB3E
:10096000044658B90F2D09D8024629464FF0FF30EA
:1009700000F038FB044B20461D6038BD012038BD17
:10098000000000200C00002004000020074A08B5E9
:100990001368032043F01003136000F011FB0020E4
:1009A000FFF7D0FF02F098F8002008BD00200240B9
:1009B000034A044B11681B780B441360704700BF57
:1009C0005401002000000020014B1868704700BF50
:1009D00054010020F7B5002604460D460196FFF7A6
:1009E000F3FF236807469A68D20508D50120A36A59
:1009F00084F8246043F02003A36203B0F0BD5A687A
:100A0000D60503D4DB6A13F4700F3BD03A4B0220B7
:100A10001E6800F083FF2368384A1969B6FBF0F0BE
:100A20001142374A4FD1DE6836490E424BD119691F
:100A3000114259D1DA68344B1A4214BF29231423C6
:100A400000FB03F6019B9E4220D96B1C05D05DB1D3
:100A5000FFF7BAFFC01B854206D3019B0133019308
:100A6000F0E7681C0FD045B9A36A032043F00403E4
:100A7000A362002384F82430BFE7FFF7A5FFC01B63
:100A80008542F1D3226813689907EAD56FF0120303
:100A900022681360A36A43F40073A362936803F4AB
:100AA0006023B3F5602F25D1E3681BBBA36A23F451
:100AB0008073A362A06A10F480501BD1A36A43F034
:100AC0000103A36299E71969114203D1D9680E4A5B
:100AD00011420BD019690D4A114209D1DB6813424A
:100AE00014BFFC235423ABE72923A9E75423A7E72A
:100AF000FC23A5E7002080E70C0000202449922475
:100B000092244912244992009224490049922400D7
:100B10000368D86C704770477047036810B55A680F
:100B20000446900627D51A68910724D5A26AD206F2
:100B30005EBFA26A42F40072A2629A6802F4602266
:100B4000B2F5602F10D1E26872B95A6822F0200223
:100B50005A60A36A23F48073A362A36ADB045EBFB6
:100B6000A36A43F00103A3622046FFF7D4FF6FF0AE
:100B7000120223681A6023685A68100630D51A6872
:100B800051072DD5A26AD2065EBFA26A42F4005276
:100B9000A2629A6802F4E042B2F5E04F0AD05A68C5
:100BA000500516D49A6802F46022B2F5602F10D175
:100BB000E26872B95A6822F080025A60A36A23F48C
:100BC0008053A362A36AD9055EBFA36A43F0010301
:100BD000A362204600F0F2F96FF00C0223681A605D
:100BE00023685A6852060DD51B68DB070AD5A36A2D
:100BF000204643F48033A362FFF78EFF6FF00102BB
:100C000023681A6010BD0000002373B5019390F8AB
:100C10002430012B74D001234D6880F82430062D38
:100C200002684FEA85030C6825D82B441F25566BB4
:100C3000053B9D4026EA050504FA03F32B43536365
:100C4000092C4FEA44038D682FD907262344D16825
:100C50001E3B9E4021EA060105FA03F30B43D360D5
:100C6000A4F11003012B2BD90023002280F82420AB
:100C7000184602B070BD0C2D0BD82B441F25166BE7
:100C8000233B9D4026EA050504FA03F32B43136337
:100C9000D6E72B441F25D66A413B9D4026EA050531
:100CA00004FA03F32B43D362CAE7072611692344EE
:100CB0009E4021EA060105FA03F30B431361CFE7D7
:100CC000104B9A4216D193681B02CDD49368102C16
:100CD00043F400039360C7D10B4B0C4A1B68B3FB72
:100CE000F2F20A2353430193019B002BBCD0019BDA
:100CF000013BF8E7836A43F0200383620123B4E7F2
:100D00000223B5E7002401400C00002040420F0000
:100D1000002373B50193036804469A68D20702D58D
:100D2000002002B070BD9A6842F001029A60124B36
:100D3000124A1B68B3FBF2F30193019BC3B9FFF79F
:100D400043FE064623689D6815F00105E8D1FFF7CC
:100D50003BFE801B0228F5D9A36A84F8245043F097
:100D60001003A362E36A012043F00103E362D8E7C2
:100D7000019B013BE0E700BF0C00002040420F0058
:100D800090F8243010B5012B044654D0012380F88C
:100D90002430FFF7BDFF002849D1A36A274A23F476
:100DA000407323F0010343F48073A36223689342EA
:100DB00004D123494A6812F4702F2ED1A26A22F47A
:100DC0008012A2625A68520541BFA26A22F44052C0
:100DD00042F48052A262A26A12F480521CBFE26AFC
:100DE00022F00602E262002284F824206FF0020260
:100DF0001A609A6802F46022B2F5602F13D10F4A8C
:100E0000934205D1A2F58062526812F4702F0AD184
:100E10009A6842F4A0029A6010BDA26A42F480125D
:100E2000A2624A68CFE79A6842F48012F3E700238F
:100E300084F8243010BD022010BD00BF00280140FE
:100E40000024014038B5036804469A68D20701D4EB
:100E5000002038BD9A6822F001029A60FFF7B4FDC5
:100E6000054623689B68DB07F2D5FFF7ADFD401B05
:100E70000228F6D9A36A012043F01003A362E36AB3
:100E800043F00103E36238BD70B50446002871D019
:100E9000836A23B9C36280F8243001F03FFE204604
:100EA000FFF7D0FFA36A13F0100FA36A64D10028E4
:100EB00062D1E16923F48853626823F0020343F0AE
:100EC00002030A43A168A362E368B1F5807F42EAA6
:100ED000430238D0012914BF06464FF48076656975
:100EE000012D07D1002B30D1A369013B46EA4335E0
:100EF00045F400662368B1F5807F5D6825F4694597
:100F000045EA06055D609E681D4D05EA060545EA51
:100F100002059D6001D0012920D12169013909050F
:100F2000DD6A25F470052943D9629968154B0B4099
:100F30009A4215D10023E362A36A23F0030343F02E
:100F40000103A36270BD0E46C9E7A36A43F0200304
:100F5000A362E36A43F00103E362CBE70021DFE72A
:100F6000A36A23F0120343F01003A362E36A43F081
:100F70000103E362012070BD43F01003A362F9E7AF
:100F8000FDF7E1FFFE0E1FFF90F8243010B5012B96
:100F9000044611D0012380F82430FFF753FF38B9FD
:100FA000A36A23F4885323F0010343F00103A362EF
:100FB000002384F8243010BD022010BD70470000CB
:100FC000074A0002D36800F4E06023F4E0631B04E6
:100FD0001B0C43F0BF6343F400330343D3607047FB
:100FE00000ED00E0174B30B5DC68C4F30224C4F117
:100FF0000703251D042B28BF0423062D4FF00105F0
:1010000098BF002405FA03F303F1FF3388BF033CC4
:101010001940A14005FA04F4013C2240002842EAAC
:1010200001024FEA0212AFBF00F16040064B00F030
:101030000F00D2B2A5BFD2B200F561401A5480F8B9
:10104000002330BD00ED00E014ED00E00123420973
:1010500000F01F0003FA00F0014B43F82200704734
:1010600000E100E00138B0F1807F0AD2F021064BA8
:10107000064A586082F823100020072298601A6000
:1010800070470120704700BF10E000E000ED00E075
:1010900090F8213010B5022B03D004238363012084
:1010A00010BD03681A6822F00E021A601A6822F056
:1010B00001021A60184A93421FD0143293421ED084
:1010C000143293421DD0143293421DD014329342F5
:1010D0001DD0143293420CBF4FF480134FF0807335
:1010E0000E4A00245360012380F82130436B80F8BE
:1010F00020407BB19847204610BD0123F0E7102324
:10110000EEE74FF48073EBE74FF48053E8E74FF4DA
:101110008033E5E7184610BD080002400000024099
:101120002DE9F74F00221646654BDFF8A4E1DFF802
:10113000A4C14FF001080C6808FA06F808EA040494
:10114000A0457FD14D68122D00F0AF8000F288805D
:10115000022D00F0A7807CD8002D00F08E80012D9C
:1011600000F09E804FF00F09FF2C93BF824606F1DE
:101170008045083DD0F800B092BFB500D0F804B06B
:10118000AD0009FA05F82BEA080802FA05F588BF50
:1011900000F1040A48EA0505CAF80050D1F804A095
:1011A0001AF0805F4ED0474D464FAD6926F00308D8
:1011B00045F00105BD61BD6908F1804805F00105F4
:1011C000019508F5803806F0030B019D4FEA8B0B63
:1011D000D8F8085009FA0BF925EA09093A4DA8424E
:1011E00068D005F58065A84266D005F58065A842FF
:1011F00064D005F58065A8420CBF0325042505FAD7
:101200000BF545EA0905C8F808501D681AF4803F37
:1012100014BF2543A5431D605D681AF4003F14BF49
:101220002543A5435D609D681AF4801F14BF2543C4
:10123000A5439D60DD681AF4001F14BF2C4325EA06
:101240000404DC600136102E7FF473AF03B0BDE8F8
:10125000F08F032D22D0112D84D1CA68043281E78A
:101260001A4FBD4209D012D8DFF86C904D4504D01A
:1012700009F580394D457FF475AF8A68C2B1012AFE
:101280000CBFC0F81080C0F8148008226AE77545CA
:10129000F3D06545F1D0DFF84490EBE7002261E739
:1012A000CA685FE7CA6808325CE7CA680C3259E767
:1012B000042257E70025A2E70125A0E702259EE7C3
:1012C000000401400010024000080140000021100D
:1012D0000000311000003210000011100000221038
:1012E00008B5044B5969014202D0586101F044FB32
:1012F00008BD00BF0004014003682DE9F341DB078E
:10130000054610D42B689F075ED42B68190700F19F
:1013100095802B685A0700F1BF80EA69002A40F0E7
:101320002D81002014E0904C636803F00C03042B23
:1013300007D0636803F00C03082B0CD16368DE034D
:1013400009D523689C03DDD56B68002BDAD1012019
:1013500002B0BDE8F0816B68B3F5803F10D123681F
:1013600043F480332360FFF72FFB0646236898037E
:10137000C8D4FFF729FB801B6428F7D90320E7E7CF
:101380009BB9236823F480332360236823F48023EC
:101390002360FFF719FB064623689903B2D5FFF7D0
:1013A00013FB801B6428F7D9E8E7B3F5A02F236867
:1013B00003D143F480232360D1E723F480332360F7
:1013C000236823F48023CDE7674C636813F00C0F88
:1013D00007D0636803F00C03082B10D16368DA03AD
:1013E0000DD423689B0702D52B69012BAFD123684D
:1013F0006A6923F0F80343EAC203236085E72A6998
:101400005A4B6AB101221A60FFF7DEFA06462368DA
:101410009F07ECD4FFF7D8FA801B0228F7D9ADE775
:101420001A60FFF7D1FA0646236898077FF56DAF7B
:10143000FFF7CAFA801B0228F6D99FE7AA694A4C2F
:101440004B4BDAB101221A60FFF7BEFA0646636A17
:101450009B070DD54FF4FA52464B1B68B3FBF2F3D2
:10146000019300BF019B5A1E0192002BF9D150E756
:10147000FFF7AAFA801B0228E9D97FE71A60FFF775
:10148000A3FA0646636A9F077FF543AFFFF79CFA0E
:10149000801B0228F6D971E7334CE369D80024D4C5
:1014A0000127E36943F08053E361E36903F080536C
:1014B0000093009B304E3368D90518D5EB68012B9B
:1014C00026D1236A43F001032362FFF77DFA41F23C
:1014D00088368046236A9B073FD5002F3FF41DAF17
:1014E000E36923F08053E36117E70027E2E73368FD
:1014F00043F480733360FFF767FA80463368DA0598
:10150000DCD4FFF761FAA0EB08006428F6D935E7D0
:10151000ABB9236A41F2883823F001032362236ABE
:1015200023F004032362FFF74FFA0646236A980765
:10153000D3D5FFF749FA801B4045F7D91EE7052BA5
:10154000236A03D143F004032362BAE723F00103C3
:101550002362236A23F00403B6E7FFF735FAA0EB12
:101560000800B042B6D909E700100240000042422C
:10157000800442420C00002000700040224C63684E
:1015800003F00C03082B3FF4E2AE00231F4E022AA7
:1015900033602BD1FFF718FA0746236899011FD44F
:1015A0002B6AB3F5803F05D16268A96822F4003246
:1015B0000A436260696A62680B4322F4741213433F
:1015C000636001233360FFF7FFF9054623689A0142
:1015D0003FF5A7AEFFF7F8F9401B0228F6D9CDE694
:1015E000FFF7F2F9C01B0228D7D9C7E6FFF7ECF9DD
:1015F000054623689B017FF594AEFFF7E5F9401B94
:101600000228F6D9BAE600BF00100240600042424C
:1016100030B5194B87B002AC03F1100522461868AB
:101620005968083303C2AB421446F7D101238DF841
:101630000430022311498DF805304B6803F00C0289
:10164000082A17D1C3F3834206A80244DB0312F829
:10165000102C0CD54B680A48C3F34043504306AAEC
:10166000134413F8143CB0FBF3F007B030BD054849
:101670005043FAE70248F8E7083700080010024034
:1016800000127A0000093D00544A2DE9F041136828
:10169000054603F007038B420E462AD329688C07C0
:1016A00034D4CA0747D44D4A136803F007039E4257
:1016B000C0F082802A684A4C12F0040F40F0878004
:1016C000130706D563682A6923F4605343EAC2030B
:1016D0006360FFF79DFF6368424AC3F30313D35C63
:1016E000D840414B18600020FFF72CF90020BDE8DE
:1016F000F081136823F007030B431360136803F0B2
:1017000007039942CAD00120BDE8F081344B11F0A3
:10171000040F1EBF5A6842F4E0625A60080742BFD5
:101720005A6842F460525A605A68A86822F0F0027F
:1017300002435A60B5E76A68294C012A23681CD124
:1017400013F4003FDFD0636841F2883823F00303CD
:1017500013436360FFF738F96B680746012B14D118
:10176000636803F00C03042B9DD0FFF72DF9C01B19
:101770004045F5D90320BDE8F081022A02D113F0DB
:10178000007FDFE713F0020FDCE7022B0FD1636865
:1017900003F00C03082B86D0FFF716F9C01B404559
:1017A000F5D9E7E7FFF710F9C01B4045E2D86368B9
:1017B00013F00C0FF6D176E7136823F007033343D9
:1017C0001360136803F007039E429CD172E76368BD
:1017D000E96823F4E0630B43636071E70020024093
:1017E00000100240353700080C000020044B054A69
:1017F0005B68C3F30223D35C034A1068D840704788
:1018000000100240453700080C000020044B054A38
:101810005B68C3F3C223D35C034A1068D8407047A7
:1018200000100240453700080C00002003682DE935
:10183000F341D907054620D5354CE369DA0032D4A7
:101840000127E36943F08053E361E36903F08053C8
:101850000193019B2F4E3368DB0526D5236A13F4D1
:10186000407336D1236A6A6823F4407313432362BA
:101870001FB1E36923F08053E3612868830706D52D
:10188000234AA968536823F440430B43536010F084
:1018900010001BD01E4AE9685368002023F480031F
:1018A0000B43536012E00027D4E7336843F480739E
:1018B0003360FFF789F880463368D805CED4FFF748
:1018C00083F8A0EB08006428F6D9032002B0BDE835
:1018D000F0816A6802F440729342C3D001200E4A3C
:1018E000236A1060002023F4407110602162D90740
:1018F000B8D5FFF769F841F288380646236A9A0797
:10190000B0D4FFF761F8801B4045F7D9DDE700BF91
:1019100000100240007000404004424270B504468E
:10192000354B86B002AD03F110062A461868596897
:10193000083303C2B3421546F7D101238DF80430B2
:1019400002239C428DF8053047D0102C17D0012C73
:101950004FD140F20231294A136A1940B1F5817F13
:1019600044D003F44073B3F5007F2DD149F64040D5
:10197000536A13F0020F08BF002006B070BD1F4B62
:101980005968186810F08070F7D0C1F3834206A838
:10199000024412F8100CCA0341BF5A6806A9C2F3E8
:1019A0004042521844BF12F8141C154A5B684CBFE1
:1019B000B2FBF1F2134A5B0202FB00F0DDD4032319
:1019C0004000B0FBF3F0D8E7B3F5407F11D11368C6
:1019D0004FF2244013F4003FCDE7FFF717FF074B0A
:1019E0005B68C3F3813301335B00EAE74FF40040E7
:1019F000C3E70020C1E700BF18370008001002400D
:101A000000127A0000093D00036A70B523F001035B
:101A10000362036A446882690D6822F073022A43F4
:101A20008D6823F002032B430A4DA8420BD1CD68E9
:101A300023F008032B438E694D6924F44074354329
:101A400023F004032C43446082614A6842630362CA
:101A500070BD00BF002C0140036A70B523F4807391
:101A60000362036A4468C2690D6822F073022A4364
:101A70008D6823F4007343EA05230B4DA8420DD172
:101A8000CD6823F4006343EA05238E694D6924F48D
:101A90004054354323F4806344EA05144460C26132
:101AA0004A68C263036270BD002C0140036A30B50E
:101AB00023F480530362036A4468C2690D6822F408
:101AC000E64242EA05228D6823F4005343EA0533D7
:101AD000064DA84202BF4D6924F4804444EA8514AF
:101AE0004460C2614A680264036230BD002C014058
:101AF00003680020DA6842F00102DA601A6842F0F6
:101B000001021A607047704790F83C3070B5012BA5
:101B10004FF002031CD0012280F83D30036880F8AA
:101B20003C209A6822F47F4222F077029A600A6889
:101B3000402A79D019D8102A00F093800AD8002AB8
:101B400000F08980012380F83D30002380F83C308C
:101B5000184670BD202A00F08A80302AF2D19A6897
:101B600022F0700242F0370236E0702A36D01BD8DD
:101B7000502A42D0602AE5D11C6A4D6824F0100436
:101B8000CE681C6299691A6A21F4704122F0A002A1
:101B900042EA051241EA063199611A629A6822F016
:101BA000700242F0670217E0B2F5805F11D0B2F523
:101BB000005FC7D18A684D689C68C9682A4324F4CD
:101BC0007F4442EA012222439A609A6842F48042AA
:101BD00002E09A6822F007029A60B3E78A684D68CB
:101BE0009C68C9682A4324F47F4442EA01222243C4
:101BF0009A609A6842F07702EEE74C68CE68196AFC
:101C00001D6A21F00A0125F001051D629A69214330
:101C100022F0F00242EA06129A6119629A6822F0F2
:101C2000700242F05702D7E74C68CE68196A1D6A05
:101C300021F00A0125F001051D629A69214322F075
:101C4000F00242EA06129A6119629A6822F0700262
:101C500042F04702C0E79A6822F0700242F00702A1
:101C6000BAE79A6822F0700242F01702B4E79A6865
:101C700022F0700242F02702AEE7704770477047CB
:101C800070477047036810B51A69044691070ED56E
:101C9000DA6892070BD56FF002021A6101229B6984
:101CA00002779B0777D0FFF7EAFF002323772368AB
:101CB0001A69500710D5DA6851070DD56FF0040284
:101CC0001A6102229B69227713F4407F204668D074
:101CD000FFF7D5FF0023237723681A6912070FD572
:101CE000DA6810070CD56FF008021A610422DB696C
:101CF0002277990720465AD0FFF7C1FF00232377A8
:101D000023681A69D20610D5DA68D0060DD56FF0AF
:101D100010021A610822DB69227713F4407F204603
:101D20004BD0FFF7ACFF0023237723681A69D10754
:101D300008D5DA68D20705D56FF0010220461A618E
:101D4000FFF79BFF23681A69100608D5DA681106A9
:101D500005D56FF0800220461A6100F00CFA236866
:101D60001A69520608D5DA68500605D56FF04002A8
:101D700020461A61FFF785FF23681A69910622D56C
:101D8000DA6892061FD56FF020022046BDE81040A9
:101D90001A6100F0EFB9FFF771FF2046FFF770FFFF
:101DA00083E7FFF76BFF2046FFF76AFF92E7FFF735
:101DB00065FF2046FFF764FFA0E7FFF75FFF2046BF
:101DC000FFF75EFFAFE710BD1A4A036890420AD0E2
:101DD000B0F1804F07D0A2F59432904203D002F5C3
:101DE0008062904215D14A6823F070031343114A70
:101DF00090420AD0B0F1804F07D0A2F594329042C1
:101E000003D002F58062904203D1CA6823F4407384
:101E100013434A6923F08003134303608B68C36252
:101E20000B688362034B984204BF0B690363012371
:101E300043617047002C014010B50446A0B190F8F2
:101E40003D3003F0FF021BB980F83C2000F09CFEFF
:101E50000223206884F83D30211DFFF7B5FF0123E0
:101E6000002084F83D3010BD012010BD10B504469F
:101E7000A0B190F83D3003F0FF021BB980F83C2080
:101E8000FFF741FE0223206884F83D30211DFFF753
:101E90009BFF0123002084F83D3010BD012010BDC0
:101EA000036A70B523F010030362036A4468826911
:101EB0000D6822F4E64242EA05228D6823F02003F1
:101EC00043EA05130B4DA8420DD1CD6823F08003E2
:101ED00043EA05138E694D6924F44064354323F0C9
:101EE000400344EA8504446082614A688263036275
:101EF00070BD00BF002C014038B590F83C3004465E
:101F0000012B4FF0020025D0012384F83D0084F816
:101F10003C300C2A18D8DFE802F0071717171E17F5
:101F200017172F17171740002068FFF76DFD23685C
:101F300009699A6942F008029A619A6922F00402DA
:101F40009A619A690A439A610123002084F83D301E
:101F500084F83C0038BD2068FFF7A2FF23680969B8
:101F60009A6942F400629A619A6922F480629A61E5
:101F70009A6942EA0122E6E72068FFF76DFD2368CF
:101F80000969DA6942F00802DA61DA6922F00402CA
:101F9000DA61DA690A43DA61D6E72068FFF786FD7D
:101FA00023680969DA6942F40062DA61DA6922F4C5
:101FB0008062DA61DA6942EA0122ECE710B50124B5
:101FC000036A8C4023EA04030362036A8A401A43CB
:101FD000026210BD10B5044601220068FFF7EEFF53
:101FE0002368064A0020934202BF5A6C42F4004222
:101FF0005A641A6842F001021A6010BD002C0140B8
:1020000010B5044600220068FFF7D8FF2368124A83
:1020100093420DD141F21112196A114208D140F2D6
:102020004442196A114202BF5A6C22F400425A64B7
:1020300041F21112196A114208D140F24442196A60
:10204000114202BF1A6822F001021A600123002027
:1020500084F83D3010BD00BF002C014010B50424B1
:10206000036A8C4023EA04030362036A8A401A432A
:10207000026210BD10B5044604220068FFF7EEFFAF
:10208000236800205A6C42F400425A641A6842F0F5
:1020900001021A6010BD10B5044600220068FFF767
:1020A000DDFF41F211122368196A114208D140F292
:1020B0004442196A114202BF5A6C22F400425A6427
:1020C00041F21112196A114208D140F24442196AD0
:1020D000114202BF1A6822F001021A60002010BDEE
:1020E000FFF7D9BF90F83C30012B1FD0CB688A682E
:1020F00023F4407313434A6823F4806313430A684C
:1021000023F4006313430A6923F4805313434A6999
:1021100023F4005313438A6923F4404313430268B2
:102120005364002380F83C30184670470220704703
:1021300090F83C3010B5012B4FF0020318D080F816
:102140003D3003680C685A68496822F070025A6092
:102150005A6822435A609A6822F080029A609A680C
:102160000A439A60012380F83D30002380F83C3018
:10217000184610BD704770470368DA6822F4907201
:10218000DA605A6922F001025A61202380F83A305D
:10219000704700002DE9F0470568C2682B690169A6
:1021A00023F4405313432B618368EA680B4341696E
:1021B00022F4B05222F00C020B431343EB606B6924
:1021C000826923F4407313436B61404B81469D4207
:1021D0004FF0190446D1FFF719FB04FB00F3D9F8BF
:1021E00004604FF06408B600B3FBF6F3B3FBF8F3FA
:1021F0001E01FFF70BFB6043D9F804309B00B0FBD6
:10220000F3F7FFF703FB6043D9F804309B00B0FB02
:10221000F3F3B3FBF8F308FB13731B013233B3FB87
:10222000F8F303F0F007FFF7F1FA6043D9F8042060
:102230009200B0FBF2FAFFF7E9FA6043D9F80430F4
:102240009B00B0FBF3F3B3FBF8F308FB13A31B01F4
:102250003233B3FBF8F303F00F033B433344AB607B
:10226000BDE8F087FFF7C2FA04FB00F3D9F8046079
:102270004FF06408B600B3FBF6F3B3FBF8F31E01AE
:10228000FFF7B4FA6043D9F804309B00B0FBF3F7D2
:10229000FFF7ACFA6043D9F804309B00B0FBF3F3CE
:1022A000B3FBF8F308FB13731B013233B3FBF8F3F2
:1022B00003F0F007FFF79AFA6043D9F80420920080
:1022C000B0FBF2FAFFF792FAB7E700BF003801401F
:1022D00010B5044640B390F8393003F0FF021BB943
:1022E00080F8382000F0C4FC2423226884F83930B8
:1022F000D368204623F40053D360FFF74BFF2368D5
:1023000000201A6922F490421A615A6922F02A02C6
:102310005A61DA6842F40052DA602023E06384F8FC
:10232000393084F83A3010BD012010BD90F83930B2
:10233000202B18D1A9B1A2B190F83830012B12D0BE
:10234000C28482840023212201620168C36380F871
:102350003920CA6880F8383042F08002CA601846D6
:102360007047012070470220704790F83A30202BC8
:1023700020D1E9B1E2B190F83830012B1AD0C285F2
:10238000828500232222C36380F83A20026881629A
:10239000D16880F8383041F48071D16051691846B5
:1023A00041F001015161D16841F02001D1607047D5
:1023B0000120704702207047704790F83A3010B5FE
:1023C000222B36D183680169B3F5805F0268836A86
:1023D00023D15268E9B9C2F3080223F8022B8362C1
:1023E000C48D013CA4B2C4858CB90368DA6822F0BC
:1023F0002002DA60DA6822F48072DA605A6922F028
:1024000001025A61202380F83A3000F09BFA002044
:1024100010BDD2B223F8012BE1E721B9591C526853
:1024200081621A70DCE75268591C816202F07F02F7
:10243000F7E7022010BD7047036870B51A680446BC
:102440001607D9685D6907D196065AD58D0658D505
:10245000BDE87040FFF7B1BF15F0010502D111F4DE
:10246000907F4ED0D30705D5CE0542BFE36B43F036
:102470000103E363500704D51DB1E36B43F002038E
:10248000E363930704D51DB1E36B43F00403E363F7
:10249000160704D51DB1E36B43F00803E363E36B58
:1024A000002B66D0950604D5880602D52046FFF796
:1024B00084FF236820465D69E26B110702D415F0A2
:1024C00040051AD0FFF758FE23685A69520610D506
:1024D0005A69606B22F040025A6150B1254B436348
:1024E000FEF7D6FD002844D0606BBDE87040436B1A
:1024F00018472046FFF79FFF70BDFFF79CFFE5637D
:1025000070BD160627D50D0625D594F83920212A49
:102510002FD1A268B2F5805F226A17D11188C1F36A
:1025200008015960216979B902322262E28C013ACC
:1025300092B2E284EAB9DA6822F08002DA60DA68FC
:1025400042F04002DA6070BD0132EEE7511C2162B8
:1025500012785A60EAE750060BD54A0609D5DA68C0
:10256000204622F04002DA60202384F83930FFF759
:1025700023FF70BD7925000808B50023406AC38594
:10258000C384FFF758FF08BD282230B595B00DEB86
:102590000200002100F068FC142210240DEB020060
:1025A000002100F061FC2246002101A800F05CFC43
:1025B000022501230F940AA800240E930A95FEF722
:1025C0009BFE0F23214605A80593069407940894C3
:1025D0000994FFF759F801A801950394FFF726F92C
:1025E00015B030BD38B53B490B788C2B0B782DD905
:1025F000182441F20400384D2A7813440A782978C7
:10260000FE3B04FB0303521A04FB0202B3F5FA5F1C
:10261000A8BF4FF4FA53B2F5FA5FA8BF4FF4FA52CD
:102620002E4C216820464B638A630021FFF758FD3A
:1026300004212046FFF754FD00212046FFF7CAFC85
:102640002046BDE838400421FFF7C4BC712B2FD8C9
:10265000182441F20400204D0B782A780978D21A08
:102660002B7804FB0202C3F1FE035B1A04FB030395
:10267000B2F5FA5FA8BF4FF4FA52B3F5FA5FA8BFFC
:102680004FF4FA53154C216820464A638B630021AE
:10269000FFF7B6FC04212046FFF7B2FC00212046DC
:1026A000FFF7E8FC2046BDE838400421FFF7E2BC14
:1026B00000210A48FFF7A4FC04210848FFF7A0FC0A
:1026C00000210648FFF70CFDBDE83840042103480F
:1026D000FFF706BD0900002008000020E8010020E7
:1026E0002DE9804897B0FEF751F9FFF74DFF102212
:1026F00000210FA800F0B8FB854B4FF002089A6943
:102700000FA942F004029A619A69824802F0040219
:102710000092009A9A69002442F008029A619B692B
:10272000CDF8448003F008030193019B4FF440630C
:102730000F93794B794E1093FEF7F2FC002228207C
:102740001146FEF74FFC2820FEF780FC10220021E6
:102750000DEB020000F088FB21461C2208A8029421
:10276000039400F081FB1C2221460FA800F07CFBA3
:102770006B4B4FF4805A86E818004FF4FA533046FA
:10278000F360B46034617461B461FFF755FB04A970
:102790003046CDF810A0FFF7B7F93046FFF766FBDB
:1027A00002A9304602940394FFF7C2FC6023089309
:1027B00041F28833224608A9304609930A940B94C3
:1027C0000C940D940E94FFF797FB4FF47A73042248
:1027D00008A930460993FFF78FFB4FF40053149379
:1027E0004FF480430FA9304615930F941094119421
:1027F00012941394FFF776FC304600F0F3F94FF48F
:102800001653484F484A384687E80C000C23474D7A
:10281000BC60FC603C617B61BC61FC61FFF758FD02
:10282000434B4FF001092B604FF4807B4FF4602342
:1028300028460F94109411946C61EB616C60C5F89C
:102840001080C5F808B0C5F80C90FEF71DFB0523F5
:102850000FA9284611930F94CDF84090FEF7D4F9B4
:102860000FA92846CDF84080CDF83C90FEF7CCF972
:10287000102221460FA800F0F7FA4FF080411323F1
:10288000DFF8BC80089488E80A0049F63F434046D8
:10289000C8F80C300994C8F80840C8F81840C8F8BF
:1028A00010B0FFF7C9FA0FA94046CDF83CA0FFF7DA
:1028B0002BF908A9404608940994FFF739FC3046E3
:1028C000FFF716F94046FFF713F92846FEF7DCFA42
:1028D000042218493846FFF748FD174C2846FEF7F2
:1028E0004FFA64212846FEF775F82846FEF710F9DE
:1028F000642120602846FEF76DF82846FEF708F9A7
:102900000E4B18602846FEF73FFBFFF76BFEE5E72E
:1029100000100240000C014000001110E8010020EE
:10292000002C014090010020003801405C01002093
:1029300000240140D0010020580100208C0100201B
:1029400028020020084B9A780D2A08D1DA780A2A42
:1029500005D11978054A11705A78054B1A7004226E
:1029600001490448FFF701BDD00100200800002004
:102970000900002090010020B0F5806F04D1054AC5
:102980001368013313607047B0F5006FFBD1024A42
:10299000F6E700BF200100202401002030B51468B4
:1029A000014453F8245043F824001368481B0133B2
:1029B00003F00F03136030BD2DE9F04F384F394D50
:1029C00087B039682868384B384AFFF7E7FF384C3A
:1029D000384E386031682068374B384AFFF7DEFFE1
:1029E00000234FF00A082B6017252360344A354B2B
:1029F0003060D3F800A0126805FB00F408FB02F079
:102A0000D3F800B0FDF7FEFC21A3D3E90023FDF7C6
:102A10005FFDCDE9040108FB0BF0FDF7F3FC1EA3FD
:102A2000D3E90023FDF754FD02460B46DDE904011E
:102A3000FDF79AFBFDF75EFF029008FB0AF0FDF739
:102A4000E1FC15A3D3E90023FDF742FDFDF752FF9A
:102A50004FF0C80901903B6894FBF9F45D4395FB86
:102A6000F9F5194E2346194A20210095304600F009
:102A700003FA3046FDF76CFB314682B21448FFF78B
:102A800055FC144807B0BDE8F04FFFF7FBB800BF96
:102A9000E882FA96395D663F05C078060DFD533F22
:102AA0001C01002024010020D00000201001002083
:102AB00020010020180100209000002014010020B7
:102AC0008C01002058010020280100202837000830
:102AD00090010020280200200E4B82B09A6942F03B
:102AE00001029A619A6902F001020092009ADA6981
:102AF00042F08052DA61DB69074A03F080530193A8
:102B0000019B536823F0E06343F00073536002B00D
:102B1000704700BF001002400000014010B504469D
:102B200086B01022002102A800F09EF92268144B02
:102B30009A4222D103F56C439A6902A942F40072C9
:102B40009A619A690F4802F400720092009A9A6999
:102B500042F004029A619B6903F004030193019B14
:102B6000032302930393FEF7DBFA0022122011469F
:102B7000FEF738FA1220FEF769FA06B010BD00BF62
:102B8000002401400008014007B50368134A93423E
:102B90000CD1134B9A6942F400629A619B6903F469
:102BA00000630093009B03B05DF804FBB3F1804F1A
:102BB000F9D103F50433DA691C2042F00102DA612D
:102BC0000022DB69114603F001030193019BFEF72C
:102BD00009FA1C20FEF73AFAE5E700BF002C014095
:102BE0000010024010B5044686B01022002102A851
:102BF00000F03AF922681A4B9A422ED103F5644349
:102C00009A69022442F004029A619A6902A902F0C8
:102C100004020092009A9A69124842F008029A61EE
:102C20009B69039403F008030193019B4FF46073C5
:102C300005940293FEF774FA012302A90A4802934D
:102C400003940594FEF76CFA084A536823F0C00316
:102C500043F0E06343F04003536006B010BD00BF93
:102C6000002C014000080140000C01400000014020
:102C700010B5044686B01022002102A800F0F4F836
:102C800022681D4B9A4235D103F558439A6902A92F
:102C900042F480429A619A69184802F48042009294
:102CA000009A9A69002442F008029A619B6903F035
:102CB00008030193019B4023029302230393032300
:102CC0000593FEF72DFA802302A90C480293039482
:102CD0000494FEF725FA0A4A25205368214643F05A
:102CE000E06343F0040353602246FEF77BF925209E
:102CF000FEF7ACF906B010BD00380140000C0140F1
:102D0000000001407047FEE7FEE7FEE7FEE7704780
:102D100070477047FDF74CBE0148FDF7FEBE00BF8F
:102D20005C0100200148FFF787BB00BF9001002035
:102D300008B54FF48060FEF7D3FABDE808404FF4C1
:102D40000060FEF7CDBA000008B50A4B02461968CC
:102D500009B9094919606946186802448A4206D9C6
:102D600000F058F80C2303604FF0FF3008BD1A60E4
:102D700008BD00BF480100206C0200200F4B1A68FC
:102D800042F001021A6059680D4A0A405A601A68F6
:102D900022F0847222F480321A601A6822F48022AF
:102DA0001A605A6822F4FE025A604FF41F029A60B9
:102DB0004FF00062034B9A60704700BF0010024062
:102DC0000000FFF800ED00E0002103E00B4B5B5832
:102DD000435004310A480B4B42189A42F6D30A4A30
:102DE00002E0002342F8043B084B9A42F9D3FFF774
:102DF000C5FF00F015F8FFF773FC7047883700082F
:102E00000000002074000020740000206C020020EC
:102E1000FEE70000014B1868704700BF100000205B
:102E200070B500250C4E0D4CA41BA410A54209D171
:102E300000F05EFC00250A4E0A4CA41BA410A5421B
:102E400005D170BD56F8253098470135EEE756F8A4
:102E5000253098470135F2E78037000880370008B1
:102E6000803700088437000803460244934200D1AB
:102E7000704703F8011BF9E70CB430B5174B0C1E73
:102E80009DB01D6808DA8B234FF0FF302B601DB01A
:102E9000BDE8304002B070474FF40273ADF8143013
:102EA0000CBF234604F1FF33049307934FF6FF73DF
:102EB00002900690ADF81630209A21AB02A9284660
:102EC000019300F069F8431CBCBF8B232B60002CDE
:102ED000DDD00022029B1A70D9E700BF100000204D
:102EE0002DE9F0478E6882469E420C4691469846F0
:102EF00035D88A8912F4906F31D002232568096988
:102F00006F1A656905EB450595FBF3F508F10103BB
:102F10003B449D4238BF1D46530531D5294600F03C
:102F200047FB064650B90C23CAF80030A3894FF07E
:102F3000FF3043F04003A381BDE8F0873A462169A2
:102F400000F0C4FAA38923F4906343F08003A381C3
:102F500026613E44266046466561ED1BA5604645F8
:102F600028BF464649463246206800F0BAFAA368B0
:102F700000209B1BA36023681E442660BDE8F087E9
:102F80002A4600F073FB06460028E1D1216950462D
:102F900000F0C2FAC7E700002DE9F04F9DB003939F
:102FA0008B8980461C060D4616460FD50B696BB9FA
:102FB000402100F0FDFA2860286128B90C23C8F8E8
:102FC00000304FF0FF30C4E040236B6100230993D1
:102FD00020238DF8293030234FF0010B8DF82A3053
:102FE00037463C4614F8013B002B3CD1B7EB060AB0
:102FF0000BD05346324629464046FFF771FF013059
:1030000000F0A280099B534409933B78002B00F009
:103010009B8000234FF0FF320493079305920693A1
:103020008DF853301A9305222178504800F040FA69
:10303000671C049BD8B9D90644BF20228DF85320C1
:103040001A0744BF2B228DF8532022782A2A16D043
:1030500000210A20079A27463B780134303B092B90
:1030600050D9C9B111E0252BC0D02746B9E73F4A56
:103070003C46801A0BFA00F018430490D3E7039AF9
:10308000111D12680391002A01DB079204E05242ED
:1030900043F00203079204933B782E2B0DD17B78EB
:1030A000791C2A2B32D1039B02371A1D1B6803920D
:1030B000002BB8BF4FF0FF3305932D4C0322397816
:1030C000204600F0F5F938B14023001B03FA00F068
:1030D000049B0137034304933978062225487E1C5C
:1030E0008DF8281000F0E4F9002835D0224BFBB908
:1030F000039B073323F0070308330393099B4B44D7
:1031000009936DE700FB02320121A4E700230A24A2
:10311000184605930F463A780131303A092A03D907
:10312000002BCAD00590C8E704FB00200123F1E77B
:1031300003AB00932A46114B04A94046AFF300802D
:10314000B0F1FF3F8146D9D1AB895B063FF539AF7E
:1031500009981DB0BDE8F08F03AB00932A46074BDA
:1031600004A9404600F084F8EAE700BF4D370008A4
:10317000533700085737000800000000E12E000810
:103180002DE9F04791461F468A680B69064693422F
:10319000B8BF1346C9F8003091F843200C46DDF85B
:1031A000208012B10133C9F800302368990642BF6C
:1031B000D9F800300233C9F80030256815F006054B
:1031C00007D104F1190AE368D9F800209B1A9D423F
:1031D0002ADB94F843302268003318BF012392069B
:1031E0002FD404F1430239463046C047013022D083
:1031F0002368E56803F00603042B18BF0025D9F8FF
:1032000000204FF0000908BFAD1AA368226908BF6B
:1032100025EAE5759342C4BF9B1AED181A344D4553
:103220001BD10020BDE8F0870123524639463046C5
:10323000C047013003D14FF0FF30BDE8F0870135C2
:10324000C1E73020E11881F843005A1C94F845107A
:103250002244023382F84310C3E701232246394651
:103260003046C0470130E6D009F10109D7E7000038
:103270002DE9F04317460A7E85B06E2A9846064629
:103280000C460C9B01F1430E00F0BC801AD8632A57
:103290002ED00AD8002A00F0C880582A00F08A8070
:1032A00004F1420584F842202AE0642A01D0692A08
:1032B000F6D121681A6811F0800F23D0111D196012
:1032C000136827E0732A00F0B48008D86F2A2AD048
:1032D000702AE5D10A6842F020020A6003E0752AEC
:1032E00021D0782ADCD178226F4984F8452064E027
:1032F0001A6801F14205111D1960136884F8423003
:103300000123A3E011F0400F02F104011960D7D0AE
:10331000B2F90030002B03DA2D225B4284F84320FF
:1033200062490A2217E02068196810F0800F03D064
:10333000081D18600B6806E010F0400F01F1040052
:103340001860F7D00B886F2A14BF0A220822574949
:10335000002084F843006568002DA560C0F29C80C1
:10336000206820F004002060002B3FD1002D40F0A9
:1033700095807546082A0BD12368DA0708D523699A
:1033800062689A42DEBF302305F8013C05F1FF3543
:10339000AEEB05032361CDF800803B4603AA21462E
:1033A0003046FFF7EDFE013055D14FF0FF3005B04C
:1033B000BDE8F08381F845203C492268186812F086
:1033C000800F00F104051D6001D0036802E055067E
:1033D000FBD50388D00744BF42F0200222601BB90E
:1033E000226822F0200222601022B1E77546B3FB6A
:1033F000F2F002FB1033CB5C05F8013D03460028D8
:10340000F5D1B7E708681A6810F0800F496904D051
:10341000101D18601368196007E010F0400F02F1EA
:10342000040018601368F6D01980002375462361E4
:10343000B1E71A68111D19601568002162682846F5
:1034400000F036F808B1401B606063682361002318
:1034500084F843309FE723692A4639463046C047FF
:103460000130A2D023689B0707D5002504F1190974
:10347000E368039A9B1A9D4205DBE068039B984230
:10348000B8BF184693E701234A4639463046C0473D
:1034900001308AD00135EBE7002BA7D10B7804F17E
:1034A000420584F8423065E76F3700085E37000850
:1034B00010B5C9B202449042034601D1002010BDAC
:1034C0001C7801308C42F6D1184610BD10B5431E51
:1034D0000A44914200D110BD11F8014B03F8014F8D
:1034E000F7E7884210B501EB020303D8421E994268
:1034F0000CD110BD9842F9D28118D21AD34200D112
:1035000010BD13F8014D01F8014DF7E711F8014B1B
:1035100002F8014FEBE7000038B50546002943D01B
:1035200051F8043C0C1F002BB8BFE41800F0D4F88D
:103530001E4A1368104633B9636014602846BDE81C
:10354000384000F0CAB8A3420BD9216862189342F0
:1035500001BF1A685B685218226063600460EDE77F
:1035600013465A680AB1A242FAD919685818A042FB
:103570000BD120680144581882421960DED11068CE
:103580005268014419605A60D8E702D90C232B60B5
:10359000D4E7206821188A4201BF116852680918CF
:1035A000216062605C60C9E738BD00BF4C0100204B
:1035B00070B5CD1C25F0030508350C2D38BF0C2542
:1035C000002D064601DBA94203D90C2333600020FD
:1035D00070BD00F081F8234A1468214691B9224C4D
:1035E00023681BB9304600F067F820602946304652
:1035F00000F062F8431C26D10C233046336000F003
:103600006CF8E4E70B685B1B1AD40B2B0FD90B602B
:10361000CC18CD50304600F060F804F10B00231DAB
:1036200020F00700C31A1BD05A42E25070BD8C42F2
:103630000BBF63684B681360636018BF0C46E9E713
:103640000C464968CAE7C41C24F00304A04205D014
:10365000211A304600F030F80130CDD02560D9E78E
:1036600070BD00BF4C01002050010020F8B5074696
:1036700014460E4621B91146BDE8F840FFF798BF41
:1036800022B9FFF749FF25462846F8BD00F026F885
:1036900084420FD921463846FFF78AFF05460028A5
:1036A000F2D031462246FFF711FF31463846FFF788
:1036B00033FFE9E73546E7E738B50023054C054613
:1036C00008462360FFF740FB431C02D1236803B187
:1036D0002B6038BD680200207047704751F8040C19
:1036E0000028A0F10400BCBF0B58C01870470000B0
:1036F000F8B500BFF8BC08BC9E467047F8B500BFDF
:08370000F8BC08BC9E467047AE
:1037080002030405060708090A0B0C0D0E0F10101A
:1037180002030405060708090A0B0C0D0E0F10100A
:1037280025643B25643B25643B25640A00000000B2
:103738000000000000010203040607080900000059
:103748000001020304232D302B2000686C4C006517
:1037580066674546470030313233343536373839B5
:1037680041424344454600303132333435363738E8
:083778003961626364656600BB
:043780003501000807
:043784001101000827
:1037880001000000100000007F7F000000A24A0432
:1037980014000020000000000000000000000000ED
:1037A8000000000000000000000000000000000011
:1037B8000000000000000000000000000000000001
:1037C80000000000000000000000000000000000F1
:1037D80000000000000000000000000000000000E1
:1037E80000000000000000000000000000000000D1
:0437F80000000000CD
:0400000508002DC9F9
:00000001FF
