:020000040800F2
:1000000000500020BD1900085D1900085F190008A4
:100010006119000863190008651900080000000054
:100020000000000000000000000000006719000848
:1000300069190008000000006B1900086D1900081C
:10004000051A0008051A0008051A0008051A000814
:10005000051A0008051A0008051A0008051A000804
:10006000051A0008051A0008051A0008051A0008F4
:10007000051A0008051A0008051A0008051A0008E4
:10008000051A0008051A0008051A0008051A0008D4
:10009000051A0008051A0008051A0008051A0008C4
:1000A000051A0008051A0008051A0008051A0008B4
:1000B000051A0008051A0008051A0008051A0008A4
:1000C000051A0008051A0008051A0008051A000894
:1000D000051A0008051A0008051A0008051A000884
:1000E000051A0008051A0008051A0008000000009B
:1000F0000000000000000000000000000000000000
:0C01000000000000000000005FF808F1A3
:10010C0010B5054C237833B9044B13B10448AFF345
:10011C0000800123237010BDDC01002000000000D2
:10012C00D81B000808B5034B1BB103490348AFF3B8
:10013C00008008BD00000000E0010020D81B000872
:10014C0038B50E4B054618784FF47A73B3FBF0F3C1
:10015C000B4A1068B0FBF3F000F092F8044658B963
:10016C000F2D09D8024629464FF0FF3000F054F805
:10017C00044B20461D6038BD012038BD0000002016
:10018C000800002004000020074A08B5136803206B
:10019C0043F01003136000F02DF80020FFF7D0FFA0
:1001AC0001F0DCFA002008BD00200240034A044B99
:1001BC0011681B780B441360704700BFF8010020D6
:1001CC0000000020014B1868704700BFF8010020A8
:1001DC0038B50446FFF7F6FF0546631C1EBF044BFB
:1001EC001B78E418FFF7EEFF401B8442FAD838BDA9
:1001FC0000000020074A0002D36800F4E06023F4FA
:10020C00E0631B041B0C43F0BF6343F40033034354
:10021C00D360704700ED00E0174B30B5DC68C4F3D9
:10022C000224C4F10703251D042B28BF0423062D2B
:10023C004FF0010598BF002405FA03F303F1FF33D7
:10024C0088BF033C1940A14005FA04F4013C22404C
:10025C00002842EA01024FEA0212AFBF00F16040EF
:10026C00064B00F00F00D2B2A5BFD2B200F5614030
:10027C001A5480F8002330BD00ED00E014ED00E0CE
:10028C000138B0F1807F0AD2F021064B064A586043
:10029C0082F823100020072298601A607047012012
:1002AC00704700BF10E000E000ED00E02DE9F74FD3
:1002BC0000221646654BDFF8A4E1DFF8A4C14FF02D
:1002CC0001080C6808FA06F808EA0404A0457FD176
:1002DC004D68122D00F0AF8000F28880022D00F0E6
:1002EC00A7807CD8002D00F08E80012D00F09E8020
:1002FC004FF00F09FF2C93BF824606F18045083D55
:10030C00D0F800B092BFB500D0F804B0AD0009FA37
:10031C0005F82BEA080802FA05F588BF00F1040A73
:10032C0048EA0505CAF80050D1F804A01AF0805F1D
:10033C004ED0474D464FAD6926F0030845F00105F8
:10034C00BD61BD6908F1804805F00105019508F50E
:10035C00803806F0030B019D4FEA8B0BD8F8085040
:10036C0009FA0BF925EA09093A4DA84268D005F5B6
:10037C008065A84266D005F58065A84264D005F575
:10038C008065A8420CBF0325042505FA0BF545EA48
:10039C000905C8F808501D681AF4803F14BF25439E
:1003AC00A5431D605D681AF4003F14BF2543A543A7
:1003BC005D609D681AF4801F14BF2543A5439D60A2
:1003CC00DD681AF4001F14BF2C4325EA0404DC601A
:1003DC000136102E7FF473AF03B0BDE8F08F032D00
:1003EC0022D0112D84D1CA68043281E71A4FBD4244
:1003FC0009D012D8DFF86C904D4504D009F580393E
:10040C004D457FF475AF8A68C2B1012A0CBFC0F8A4
:10041C001080C0F8148008226AE77545F3D0654552
:10042C00F1D0DFF84490EBE7002261E7CA685FE7A0
:10043C00CA6808325CE7CA680C3259E7042257E7ED
:10044C000025A2E70125A0E702259EE70004014054
:10045C000010024000080140000021100000311083
:10046C0000003210000011100000221038B50446B4
:10047C0008B9012038BD90F83D3003F0FF021BB9DC
:10048C0080F83C2001F08CF92423226884F83D305C
:10049C00136823F00103136000F0E2FA63682F4A3B
:1004AC00934230D82E4A9042E3D92E4A2168B0FBB1
:1004BC00F2F24A6001320A62284A0138934232D879
:1004CC005B00B0FBF3F0431CC3F30B03042B38BFEE
:1004DC000423CB61226AE369002013430B60E268BA
:1004EC00236913438B60A26963691343CB600B6868
:1004FC0043F001030B602023206484F83D3020631B
:10050C0084F83E0038BD184A9042B2D9154D4FF4CC
:10051C009672B0FBF5F521686A434D604FF47A751D
:10052C00B2FBF5F2C6E7A26852B903EB4303B0FB8A
:10053C00F3F0431CC3F30B036BB143F40043C8E764
:10054C0019225343B0FBF3F0431CC3F30B0313B159
:10055C0043F44043BDE70123BBE700BFA086010085
:10056C007F841E0040420F00FF083D0003682DE908
:10057C00F341DB07054610D42B689F075ED42B682C
:10058C00190700F195802B685A0700F1BF80EA69C2
:10059C00002A40F02D81002014E0904C636803F099
:1005AC000C03042B07D0636803F00C03082B0CD14D
:1005BC006368DE0309D523689C03DDD56B68002BCB
:1005CC00DAD1012002B0BDE8F0816B68B3F5803F51
:1005DC0010D1236843F480332360FFF7F3FD064604
:1005EC0023689803C8D4FFF7EDFD801B6428F7D966
:1005FC000320E7E79BB9236823F480332360236847
:10060C0023F480232360FFF7DDFD0646236899035E
:10061C00B2D5FFF7D7FD801B6428F7D9E8E7B3F50F
:10062C00A02F236803D143F480232360D1E723F464
:10063C0080332360236823F48023CDE7674C636801
:10064C0013F00C0F07D0636803F00C03082B10D1C8
:10065C006368DA030DD423689B0702D52B69012B41
:10066C00AFD123686A6923F0F80343EAC20323601D
:10067C0085E72A695A4B6AB101221A60FFF7A2FD7D
:10068C00064623689F07ECD4FFF79CFD801B0228CD
:10069C00F7D9ADE71A60FFF795FD06462368980772
:1006AC007FF56DAFFFF78EFD801B0228F6D99FE713
:1006BC00AA694A4C4B4BDAB101221A60FFF782FD52
:1006CC000646636A9B070DD54FF4FA52464B1B68DE
:1006DC00B3FBF2F3019300BF019B5A1E0192002B56
:1006EC00F9D150E7FFF76EFD801B0228E9D97FE7AF
:1006FC001A60FFF767FD0646636A9F077FF543AFF5
:10070C00FFF760FD801B0228F6D971E7334CE369D3
:10071C00D80024D40127E36943F08053E361E369F3
:10072C0003F080530093009B304E3368D90518D5E5
:10073C00EB68012B26D1236A43F001032362FFF7F8
:10074C0041FD41F288368046236A9B073FD5002F36
:10075C003FF41DAFE36923F08053E36117E70027F3
:10076C00E2E7336843F480733360FFF72BFD804678
:10077C003368DA05DCD4FFF725FDA0EB080064280C
:10078C00F6D935E7ABB9236A41F2883823F0010377
:10079C002362236A23F004032362FFF713FD06464A
:1007AC00236A9807D3D5FFF70DFD801B4045F7D979
:1007BC001EE7052B236A03D143F004032362BAE737
:1007CC0023F001032362236A23F00403B6E7FFF747
:1007DC00F9FCA0EB0800B042B6D909E700100240C2
:1007EC000000424280044242080000200070004099
:1007FC00224C636803F00C03082B3FF4E2AE002399
:10080C001F4E022A33602BD1FFF7DCFC074623680E
:10081C0099011FD42B6AB3F5803F05D16268A96892
:10082C0022F400320A436260696A62680B4322F464
:10083C0074121343636001233360FFF7C3FC054656
:10084C0023689A013FF5A7AEFFF7BCFC401B0228BA
:10085C00F6D9CDE6FFF7B6FCC01B0228D7D9C7E600
:10086C00FFF7B0FC054623689B017FF594AEFFF7BC
:10087C00A9FC401B0228F6D9BAE600BF00100240C2
:10088C006000424230B5194B87B002AC03F1100541
:10089C00224618685968083303C2AB421446F7D194
:1008AC0001238DF80430022311498DF805304B6873
:1008BC0003F00C02082A17D1C3F3834206A80244A2
:1008CC00DB0312F8102C0CD54B680A48C3F34043D9
:1008DC00504306AA134413F8143CB0FBF3F007B0D2
:1008EC0030BD05485043FAE70248F8E7F01B000812
:1008FC000010024000127A0000093D00544A2DE914
:10090C00F0411368054603F007038B420E462AD3C9
:10091C0029688C0734D4CA0747D44D4A136803F0AE
:10092C0007039E42C0F082802A684A4C12F0040FE2
:10093C0040F08780130706D563682A6923F4605357
:10094C0043EAC2036360FFF79DFF6368424AC3F347
:10095C000313D35CD840414B18600020FFF7F0FB29
:10096C000020BDE8F081136823F007030B431360EC
:10097C00136803F007039942CAD00120BDE8F08147
:10098C00344B11F0040F1EBF5A6842F4E0625A60F7
:10099C00080742BF5A6842F460525A605A68A86805
:1009AC0022F0F00202435A60B5E76A68294C012A2A
:1009BC0023681CD113F4003FDFD0636841F2883800
:1009CC0023F0030313436360FFF7FCFB6B680746DC
:1009DC00012B14D1636803F00C03042B9DD0FFF79B
:1009EC00F1FBC01B4045F5D90320BDE8F081022A7C
:1009FC0002D113F0007FDFE713F0020FDCE7022BCC
:100A0C000FD1636803F00C03082B86D0FFF7DAFBD9
:100A1C00C01B4045F5D9E7E7FFF7D4FBC01B4045A9
:100A2C00E2D8636813F00C0FF6D176E7136823F065
:100A3C00070333431360136803F007039E429CD1F2
:100A4C0072E76368E96823F4E0630B43636071E762
:100A5C000020024000100240001C0008080000208A
:100A6C00044B054A5B68C3F30223D35C034A10684A
:100A7C00D840704700100240101C000808000020ED
:100A8C00044B054A5B68C3F3C223D35C034A10686A
:100A9C00D840704700100240101C000808000020CD
:100AAC00036A70B523F001030362036A4468826928
:100ABC000D6822F073022A438D6823F002032B4346
:100ACC000A4DA8420BD1CD6823F008032B438E6945
:100ADC004D6924F44074354323F004032C434460E3
:100AEC0082614A684263036270BD00BF002C014002
:100AFC00036A70B523F480730362036A4468C269A5
:100B0C000D6822F073022A438D6823F4007343EAC4
:100B1C0005230B4DA8420DD1CD6823F4006343EAA5
:100B2C0005238E694D6924F44054354323F48063C6
:100B3C0044EA05144460C2614A68C263036270BD32
:100B4C00002C0140036A30B523F480530362036A1E
:100B5C004468C2690D6822F4E64242EA05228D68B7
:100B6C0023F4005343EA0533064DA84202BF4D69F6
:100B7C0024F4804444EA85144460C2614A680264E7
:100B8C00036230BD002C014003680020DA6842F09B
:100B9C000102DA601A6842F001021A60704770476D
:100BAC0090F83C3070B5012B4FF002031CD00122A1
:100BBC0080F83D30036880F83C209A6822F47F422C
:100BCC0022F077029A600A68402A79D019D8102A44
:100BDC0000F093800AD8002A00F08980012380F865
:100BEC003D30002380F83C30184670BD202A00F0C0
:100BFC008A80302AF2D19A6822F0700242F03702D1
:100C0C0036E0702A36D01BD8502A42D0602AE5D163
:100C1C001C6A4D6824F01004CE681C6299691A6A2B
:100C2C0021F4704122F0A00242EA051241EA063199
:100C3C0099611A629A6822F0700242F0670217E01A
:100C4C00B2F5805F11D0B2F5005FC7D18A684D68EC
:100C5C009C68C9682A4324F47F4442EA0122224357
:100C6C009A609A6842F4804202E09A6822F0070285
:100C7C009A60B3E78A684D689C68C9682A4324F473
:100C8C007F4442EA012222439A609A6842F077023A
:100C9C00EEE74C68CE68196A1D6A21F00A0125F04E
:100CAC0001051D629A69214322F0F00242EA061204
:100CBC009A6119629A6822F0700242F05702D7E7E3
:100CCC004C68CE68196A1D6A21F00A0125F00105ED
:100CDC001D629A69214322F0F00242EA06129A61DF
:100CEC0019629A6822F0700242F04702C0E79A68D3
:100CFC0022F0700242F00702BAE79A6822F0700202
:100D0C0042F01702B4E79A6822F0700242F0270210
:100D1C00AEE700001A4A036890420AD0B0F1804F47
:100D2C0007D0A2F59432904203D002F58062904233
:100D3C0015D14A6823F070031343114A90420AD02C
:100D4C00B0F1804F07D0A2F59432904203D002F557
:100D5C008062904203D1CA6823F4407313434A69FA
:100D6C0023F08003134303608B68C3620B688362B8
:100D7C00034B984204BF0B69036301234361704723
:100D8C00002C014010B50446A0B190F83D3003F0A2
:100D9C00FF021BB980F83C2000F03EFD02232068C6
:100DAC0084F83D30211DFFF7B5FF0123002084F8A6
:100DBC003D3010BD012010BD10B50446A0B190F817
:100DCC003D3003F0FF021BB980F83C20FFF7E7FE33
:100DDC000223206884F83D30211DFFF79BFF01237F
:100DEC00002084F83D3010BD012010BD036A70B5A1
:100DFC0023F010030362036A446882690D6822F4CD
:100E0C00E64242EA05228D6823F0200343EA0513EB
:100E1C000B4DA8420DD1CD6823F0800343EA051396
:100E2C008E694D6924F44064354323F0400344EA51
:100E3C008504446082614A688263036270BD00BFAE
:100E4C00002C014038B590F83C300446012B4FF093
:100E5C00020025D0012384F83D0084F83C300C2A94
:100E6C0018D8DFE802F0071717171E1717172F17D8
:100E7C00171740002068FFF713FE236809699A6969
:100E8C0042F008029A619A6922F004029A619A6906
:100E9C000A439A610123002084F83D3084F83C0019
:100EAC0038BD2068FFF7A2FF236809699A6942F4EC
:100EBC0000629A619A6922F480629A619A6942EAA4
:100ECC000122E6E72068FFF713FE23680969DA6957
:100EDC0042F00802DA61DA6922F00402DA61DA69B6
:100EEC000A43DA61D6E72068FFF72CFE236809690C
:100EFC00DA6942F40062DA61DA6922F48062DA615A
:100F0C00DA6942EA0122ECE710B50124036A8C404D
:100F1C0023EA04030362036A8A401A43026210BD87
:100F2C0010B5044601220068FFF7EEFF2368064A5D
:100F3C000020934202BF5A6C42F400425A641A6871
:100F4C0042F001021A6010BD002C014010B504469D
:100F5C0000220068FFF7D8FF2368124A93420DD194
:100F6C0041F21112196A114208D140F24442196A35
:100F7C00114202BF5A6C22F400425A6441F211121F
:100F8C00196A114208D140F24442196A114202BF57
:100F9C001A6822F001021A600123002084F83D3007
:100FAC0010BD00BF002C014010B50424036A8C4016
:100FBC0023EA04030362036A8A401A43026210BDE7
:100FCC0010B5044604220068FFF7EEFF23680020EA
:100FDC005A6C42F400425A641A6842F001021A60D8
:100FEC0010BD10B5044600220068FFF7DDFF41F28A
:100FFC0011122368196A114208D140F24442196A4D
:10100C00114202BF5A6C22F400425A6441F211128E
:10101C00196A114208D140F24442196A114202BFC6
:10102C001A6822F001021A60002010BDFFF7D9BF28
:10103C0090F83C30012B1FD0CB688A6823F44073A6
:10104C0013434A6823F4806313430A6823F4006350
:10105C0013430A6923F4805313434A6923F400535E
:10106C0013438A6923F440431343026853640023F7
:10107C0080F83C30184670470220704790F83C309E
:10108C0010B5012B4FF0020318D080F83D300368E7
:10109C000C685A68496822F070025A605A682243F8
:1010AC005A609A6822F080029A609A680A439A60A1
:1010BC00012380F83D30002380F83C30184610BDE9
:1010CC002DE9F0470568C2682B69016923F4405388
:1010DC0013432B618368EA680B43416922F4B052D5
:1010EC0022F00C020B431343EB606B69826923F40F
:1010FC00407313436B61404B81469D424FF0190482
:10110C0046D1FFF7BDFC04FB00F3D9F804604FF0A7
:10111C006408B600B3FBF6F3B3FBF8F31E01FFF75C
:10112C00AFFC6043D9F804309B00B0FBF3F7FFF73A
:10113C00A7FC6043D9F804309B00B0FBF3F3B3FB7E
:10114C00F8F308FB13731B013233B3FBF8F303F012
:10115C00F007FFF795FC6043D9F804209200B0FB30
:10116C00F2FAFFF78DFC6043D9F804309B00B0FB1A
:10117C00F3F3B3FBF8F308FB13A31B013233B3FBFC
:10118C00F8F303F00F033B433344AB60BDE8F08747
:10119C00FFF766FC04FB00F3D9F804604FF0640819
:1011AC00B600B3FBF6F3B3FBF8F31E01FFF758FCE4
:1011BC006043D9F804309B00B0FBF3F7FFF750FC09
:1011CC006043D9F804309B00B0FBF3F3B3FBF8F3A6
:1011DC0008FB13731B013233B3FBF8F303F0F00776
:1011EC00FFF73EFC6043D9F804209200B0FBF2FA02
:1011FC00FFF736FCB7E700BF00380140F8B50446EE
:10120C000E4617461D4621680B6836EA030301D1CA
:10121C000020F8BD6B1CF7D095B923680320DA6861
:10122C0022F4D072DA605A6922F001025A6120234A
:10123C0084F8393084F83A30002384F83830F8BD1B
:10124C00FEF7C0FFC01B8542DDD2E6E710B50446B1
:10125C0040B390F8393003F0FF021BB980F8382006
:10126C0000F034FB2423226884F83930D3682046FC
:10127C0023F40053D360FFF723FF236800201A697F
:10128C0022F490421A615A6922F02A025A61DA68F1
:10129C0042F40052DA602023E06384F8393084F899
:1012AC003A3010BD012010BD2DE9F0411F4690F8D9
:1012BC0039300446202B0D4690464ED1002949D09A
:1012CC00002A47D090F83830012B46D0012380F803
:1012DC0038300023C363212380F83930FEF772FFC6
:1012EC000646A4F82480A4F82680E38C9BB26BB944
:1012FC003B46324640212046FFF780FFA8B9202309
:10130C0084F8380084F83930BDE8F081E38C32463B
:10131C00013B9BB2E384A3688021B3F5805F204638
:10132C003B460ED1FFF76AFF10B10320BDE8F081F8
:10133C002B882268C3F308035360236943B9023531
:10134C00D3E7FFF75BFF0028EFD123682A785A60B8
:10135C000135CAE70120BDE8F0810220BDE8F0812B
:10136C002DE9F0411F4690F83A300446202B0D46EB
:10137C00904651D100294CD0002A4AD090F83830F0
:10138C00012B49D0012380F838300023C36322237A
:10139C0080F83A30FEF716FF0646A4F82C80A4F825
:1013AC002E80E08D80B230B9202384F8380084F888
:1013BC003A30BDE8F081E38D3246013B9BB2E385C8
:1013CC00A3682021B3F5805F20463B4612D1FFF77E
:1013DC0015FF10B10320BDE8F081236822695B681A
:1013EC0022B9C3F3080325F8023BDAE7DBB225F890
:1013FC00013BD6E7FFF702FF0028EBD123682169F8
:10140C006A1C5B6811B92B701546CAE703F07F03A1
:10141C00F9E70120BDE8F0810220BDE8F08100B5BC
:10142C0091B02822002106A800F010FB1422002104
:10143C0001A800F00BFB0223069301230A9310234F
:10144C0006A80B93FFF792F800210F2301A8019334
:10145C000291039104910591FFF750FA11B05DF8D8
:10146C0004FB00001FB5184C6946C8230722204610
:10147C00FFF776FF0722694664232046FFF714FF27
:10148C009DF8013002A88DF808309DF802308DF8D7
:10149C0009309DF803308DF80A3000F0AEFA0B4B92
:1014AC0018609DF8043002A88DF808309DF80530BE
:1014BC008DF809309DF806308DF80A3000F09DFA51
:1014CC00034B186004B010BD54020020D40200205D
:1014DC0050020020484810B50368B3F5967F41DDF3
:1014EC0046490A68B2F5967F19DDA3F59673A2F505
:1014FC009672092B03600A6016DC00214048FFF746
:10150C0025FD04213E48FFF721FD00213C48FFF753
:10151C008DFDBDE8104004213948FFF787BDA2F1CD
:10152C00C904622CE1D910BD354C991A1A442068B3
:10153C004901520102F5616201F561614163826307
:10154C0000212046FFF772FD04212046FFF76EFDB7
:10155C0000212046FFF7E4FC2046BDE810400421A2
:10156C00FFF7DEBCDFD0254C2268A2F1C90162294D
:10157C0027D8C82BD7DDA2F59672A3F596712260F9
:10158C00C3F596731E4C0160511A9A1A20684901D2
:10159C00520101F5616102F56162416382630021D0
:1015AC002046FFF7D3FC04212046FFF7CFFC002197
:1015BC002046FFF705FD2046BDE810400421FFF74B
:1015CC00FFBCB2F5967FAEDDC82BACDDA2F59672F2
:1015DC00A3F596712260C3F59673094C01609B1AB2
:1015EC00511A206849015B0101F5616103F56163E2
:1015FC0041638363D3E700BF50020020D402002074
:10160C009402002000B597B0FEF7BEFDFFF707FF70
:10161C004A4B00249A69002142F004029A619A69AB
:10162C00474D02F004020092009A9A694FF48046EA
:10163C0042F008029A6110229B690DEB020003F044
:10164C0008030193019B00F001FA1C22214608A813
:10165C000294039400F0FAF91C2221460FA800F022
:10166C00F5F9384B284685E818004FF4FA53AC606E
:10167C00EB602C616C61AC61FFF784FB4FF4805321
:10168C0004A928460493FFF78BFA2846FFF794FB2E
:10169C0002A9284602940394FFF7F0FC60230893F8
:1016AC0041F28833224608A9284609930A940B94E0
:1016BC000C940D940E94FFF7C5FB4FF47A7304222F
:1016CC0008A928460993FFF7BDFB4FF400530FA957
:1016DC00284614930F941094119412941394159605
:1016EC00FFF7A6FC284600F0ABF84FF4165316484B
:1016FC00164A846080E80C000C23C46043610461CA
:10170C008461C461FFF7A2FD11481249124B846039
:10171C0080E80A00C460066144618461C4610462AB
:10172C00FEF7A4FE2846FFF72FFAFFF79BFEFFF704
:10173C00D1FE0120FEF74CFDF7E700BF0010024080
:10174C0094020020002C014054020020003801407B
:10175C00FC01002000540040801A06000E4B82B0A1
:10176C009A6942F001029A619A6902F001020092B0
:10177C00009ADA6942F08052DA61DB69074A03F0B9
:10178C0080530193019B536823F0E06343F0007393
:10179C00536002B0704700BF0010024000000140CF
:1017AC0010B5044686B01022002102A800F04EF9B4
:1017BC002268154B9A4224D1144C02A9A3691448EF
:1017CC0043F00803A361A36903F008030093009B93
:1017DC004FF4407302931223039303230593FEF7F4
:1017EC0065FD0C4A536843F0E06343F00203536019
:1017FC00E36943F40013E361E36903F40013019319
:10180C00019B06B010BD00BF005400400010024008
:10181C00000C0140000001400268084B82B09A4263
:10182C000AD103F564439A6942F400629A619B6998
:10183C0003F400630193019B02B07047002C01403C
:10184C0010B5044686B01022002102A800F0FEF864
:10185C0022681A4B9A422ED103F564439A690224EA
:10186C0042F004029A619A6902A902F00402009201
:10187C00009A9A69124842F008029A619B69039493
:10188C0003F008030193019B4FF4607305940293DA
:10189C00FEF70CFD012302A90A4802930394059458
:1018AC00FEF704FD084A536823F0C00343F0E063DD
:1018BC0043F04003536006B010BD00BF002C014044
:1018CC0000080140000C01400000014010B5044626
:1018DC0086B01022002102A800F0B8F82268194B3B
:1018EC009A422DD103F558439A6902A942F48042D9
:1018FC009A619A69144802F480420092009A9A699B
:10190C0042F008029A619B6903F008030193019B62
:10191C00402302930223039303230593FEF7C6FC93
:10192C0080230293002302A9074803930493FEF734
:10193C00BDFC064A536843F0E06343F00403536074
:10194C0006B010BD00380140000C01400000014001
:10195C007047FEE7FEE7FEE7FEE77047704770470B
:10196C00FEF724BC0F4B1A6842F001021A6059684A
:10197C000D4A0A405A601A6822F0847222F48032AE
:10198C001A601A6822F480221A605A6822F4FE0245
:10199C005A604FF41F029A604FF00062034B9A603A
:1019AC00704700BF001002400000FFF800ED00E09F
:1019BC00002103E00B4B5B58435004310A480B4B9E
:1019CC0042189A42F6D30A4A02E0002342F8043B3A
:1019DC00084B9A42F9D3FFF7C5FF00F013F8FFF755
:1019EC0011FE70472C1D000800000020DC010020B7
:1019FC00DC010020D8020020FEE70A22002100F0C2
:101A0C00ADB8000070B500250C4E0D4CA41BA410F5
:101A1C00A54209D100F0DAF800250A4E0A4CA41BA5
:101A2C00A410A54205D170BD56F825309847013554
:101A3C00EEE756F8253098470135F2E7241D0008EB
:101A4C00241D0008241D0008281D0008034602441C
:101A5C00934200D1704703F8011BF9E72DE9F84FC9
:101A6C008046894692461F468B465D460A9815F875
:101A7C00014B00F089F82044467816F008060BD18B
:101A8C002D2C0BD101262C780BF1020567B1102FF0
:101A9C0014D1302C0AD011E0AB46E6E72B2C04BF56
:101AAC002C780BF10205F1E7302C27D12B7803F0C1
:101ABC00DF03582B4BD110276C780235002E0CBF4E
:101ACC006FF000414FF000410022B1FBF7FE1046D1
:101ADC0007FB1E1CA4F13003092B11D81C46A7428E
:101AEC001DDD531C07D0864516D301D1A44513DB4D
:101AFC00012200FB074015F8014BEBE70A27DDE755
:101B0C00A4F14103192B01D8373CE8E7A4F1610398
:101B1C00192B04D8573CE2E74FF0FF32EBE7531C8C
:101B2C0008D122230846C8F80030BAF1000F07D1BB
:101B3C00BDE8F88F06B14042BAF1000F0CD022B1CB
:101B4C00013DCAF80050BDE8F88F4D46F9E7302446
:101B5C00002FB3D10827B1E7BDE8F88F084B37B594
:101B6C001C68084D236A002B08BF2B4600931346B4
:101B7C000A4601462046FFF771FF03B030BD00BF97
:101B8C000C00002070000020D0F8EC00704782B0F0
:101B9C0001B901A942B14BB113780B601278101C3A
:101BAC0018BF012002B070471046FBE76FF0010030
:101BBC00F8E749B1FF2A8BBF8A230A700360012022
:101BCC0088BF4FF0FF30704708467047F8B500BF2C
:101BDC00F8BC08BC9E467047F8B500BFF8BC08BC02
:041BEC009E4670475A
:101BF00002030405060708090A0B0C0D0E0F10104E
:101C000000000000000000000102030406070809AC
:101C100000000000010203044300504F53495800E4
:101C20002E000020202020202020202028282828C6
:101C3000282020202020202020202020202020209C
:101C400020202088101010101010101010101010EC
:101C500010101004040404040404040404101010FC
:101C600010101010414141414141010101010101A8
:101C70000101010101010101010101010101101036
:101C8000101010104242424242420202020202027C
:101C90000202020202020202020202020202101008
:101CA00010102000000000000000000000000000F4
:101CB0000000000000000000000000000000000024
:101CC0000000000000000000000000000000000014
:101CD0000000000000000000000000000000000004
:101CE00000000000000000000000000000000000F4
:101CF00000000000000000000000000000000000E4
:101D000000000000000000000000000000000000D3
:101D100000000000000000000000000000000000C3
:041D200000000000BF
:041D24003101000881
:041D28000D010008A1
:101D2C00010000001000000000A24A041000002076
:101D3C000000000000000000000000000000000097
:101D4C000000000000000000000000000000000087
:101D5C000000000000000000000000000000000077
:101D6C000000000000000000000000000000000067
:101D7C000000000000000000000000000000000057
:101D8C000000000000000000000000000000000047
:101D9C0043000000000000000000000000000000F4
:101DAC000000000000000000000000000000000027
:101DBC0043000000000000000000000000000000D4
:101DCC000000000000000000000000000000000007
:101DDC0043000000000000000000000000000000B4
:101DEC0000000000000000000000000000000000E7
:101DFC004300000000000000000000000000000094
:101E0C0000000000000000000000000000000000C6
:101E1C004300000000000000000000000000000073
:101E2C0000000000000000000000000000000000A6
:101E3C004300000000000000000000000000000053
:101E4C000000000000000000000000000000000086
:101E5C004300000000000000000000000000000033
:101E6C000000000000000000000000000000000066
:101E7C00BF1B00089B1B000800000000221C000870
:101E8C00201C0008211C0008211C0008211C000833
:101E9C00211C0008211C0008211C0008211C000822
:101EAC00211C0008211C0008FFFFFFFFFFFFFFFFA4
:101EBC00FFFFFFFFFFFF00000100415343494900B2
:101ECC000000000000000000000000000000000006
:101EDC00000000000000000000004153434949008D
:101EEC0000000000000000000000000000000000E6
:0C1EFC00000000000000000000000000DA
:04000005080019BD19
:00000001FF
