:020000040800F2
:100000000050002079180008191800081B18000873
:100010001D1800081F180008211800080000000023
:10002000000000000000000000000000231800088D
:1000300025180008000000002718000829180008EB
:10004000C1180008C1180008C1180008C11800082C
:10005000C1180008C1180008C1180008C11800081C
:10006000C1180008C1180008C1180008C11800080C
:10007000C1180008C1180008C1180008C1180008FC
:10008000C1180008C1180008C1180008C1180008EC
:10009000C1180008C1180008C1180008C1180008DC
:1000A000C1180008C1180008C1180008C1180008CC
:1000B000C1180008C1180008C1180008C1180008BC
:1000C000C1180008C1180008C1180008C1180008AC
:1000D000C1180008C1180008C1180008C11800089C
:1000E000C1180008C1180008C1180008000000006D
:1000F0000000000000000000000000000000000000
:0C01000000000000000000005FF808F1A3
:10010C0010B5054C237833B9044B13B10448AFF345
:10011C0000800123237010BD10000020000000009F
:10012C00F019000808B5034B1BB103490348AFF3A2
:10013C00008008BD0000000014000020F019000829
:10014C0038B50E4B054618784FF47A73B3FBF0F3C1
:10015C000B4A1068B0FBF3F000F092F8044658B963
:10016C000F2D09D8024629464FF0FF3000F054F805
:10017C00044B20461D6038BD012038BD0000002016
:10018C000C00002004000020074A08B51368032067
:10019C0043F01003136000F02DF80020FFF7D0FFA0
:1001AC0001F03AFA002008BD00200240034A044B3B
:1001BC0011681B780B441360704700BF300000209F
:1001CC0000000020014B1868704700BF3000002071
:1001DC0038B50446FFF7F6FF0546631C1EBF044BFB
:1001EC001B78E418FFF7EEFF401B8442FAD838BDA9
:1001FC0000000020074A0002D36800F4E06023F4FA
:10020C00E0631B041B0C43F0BF6343F40033034354
:10021C00D360704700ED00E0174B30B5DC68C4F3D9
:10022C000224C4F10703251D042B28BF0423062D2B
:10023C004FF0010598BF002405FA03F303F1FF33D7
:10024C0088BF033C1940A14005FA04F4013C22404C
:10025C00002842EA01024FEA0212AFBF00F16040EF
:10026C00064B00F00F00D2B2A5BFD2B200F5614030
:10027C001A5480F8002330BD00ED00E014ED00E0CE
:10028C000138B0F1807F0AD2F021064B064A586043
:10029C0082F823100020072298601A607047012012
:1002AC00704700BF10E000E000ED00E02DE9F74FD3
:1002BC0000221646654BDFF8A4E1DFF8A4C14FF02D
:1002CC0001080C6808FA06F808EA0404A0457FD176
:1002DC004D68122D00F0AF8000F28880022D00F0E6
:1002EC00A7807CD8002D00F08E80012D00F09E8020
:1002FC004FF00F09FF2C93BF824606F18045083D55
:10030C00D0F800B092BFB500D0F804B0AD0009FA37
:10031C0005F82BEA080802FA05F588BF00F1040A73
:10032C0048EA0505CAF80050D1F804A01AF0805F1D
:10033C004ED0474D464FAD6926F0030845F00105F8
:10034C00BD61BD6908F1804805F00105019508F50E
:10035C00803806F0030B019D4FEA8B0BD8F8085040
:10036C0009FA0BF925EA09093A4DA84268D005F5B6
:10037C008065A84266D005F58065A84264D005F575
:10038C008065A8420CBF0325042505FA0BF545EA48
:10039C000905C8F808501D681AF4803F14BF25439E
:1003AC00A5431D605D681AF4003F14BF2543A543A7
:1003BC005D609D681AF4801F14BF2543A5439D60A2
:1003CC00DD681AF4001F14BF2C4325EA0404DC601A
:1003DC000136102E7FF473AF03B0BDE8F08F032D00
:1003EC0022D0112D84D1CA68043281E71A4FBD4244
:1003FC0009D012D8DFF86C904D4504D009F580393E
:10040C004D457FF475AF8A68C2B1012A0CBFC0F8A4
:10041C001080C0F8148008226AE77545F3D0654552
:10042C00F1D0DFF84490EBE7002261E7CA685FE7A0
:10043C00CA6808325CE7CA680C3259E7042257E7ED
:10044C000025A2E70125A0E702259EE70004014054
:10045C000010024000080140000021100000311083
:10046C0000003210000011100000221038B50446B4
:10047C0008B9012038BD90F83D3003F0FF021BB9DC
:10048C0080F83C2001F0EAF82423226884F83D30FF
:10049C00136823F00103136000F0E2FA63682F4A3B
:1004AC00934230D82E4A9042E3D92E4A2168B0FBB1
:1004BC00F2F24A6001320A62284A0138934232D879
:1004CC005B00B0FBF3F0431CC3F30B03042B38BFEE
:1004DC000423CB61226AE369002013430B60E268BA
:1004EC00236913438B60A26963691343CB600B6868
:1004FC0043F001030B602023206484F83D3020631B
:10050C0084F83E0038BD184A9042B2D9154D4FF4CC
:10051C009672B0FBF5F521686A434D604FF47A751D
:10052C00B2FBF5F2C6E7A26852B903EB4303B0FB8A
:10053C00F3F0431CC3F30B036BB143F40043C8E764
:10054C0019225343B0FBF3F0431CC3F30B0313B159
:10055C0043F44043BDE70123BBE700BFA086010085
:10056C007F841E0040420F00FF083D0003682DE908
:10057C00F341DB07054610D42B689F075ED42B682C
:10058C00190700F195802B685A0700F1BF80EA69C2
:10059C00002A40F02D81002014E0904C636803F099
:1005AC000C03042B07D0636803F00C03082B0CD14D
:1005BC006368DE0309D523689C03DDD56B68002BCB
:1005CC00DAD1012002B0BDE8F0816B68B3F5803F51
:1005DC0010D1236843F480332360FFF7F3FD064604
:1005EC0023689803C8D4FFF7EDFD801B6428F7D966
:1005FC000320E7E79BB9236823F480332360236847
:10060C0023F480232360FFF7DDFD0646236899035E
:10061C00B2D5FFF7D7FD801B6428F7D9E8E7B3F50F
:10062C00A02F236803D143F480232360D1E723F464
:10063C0080332360236823F48023CDE7674C636801
:10064C0013F00C0F07D0636803F00C03082B10D1C8
:10065C006368DA030DD423689B0702D52B69012B41
:10066C00AFD123686A6923F0F80343EAC20323601D
:10067C0085E72A695A4B6AB101221A60FFF7A2FD7D
:10068C00064623689F07ECD4FFF79CFD801B0228CD
:10069C00F7D9ADE71A60FFF795FD06462368980772
:1006AC007FF56DAFFFF78EFD801B0228F6D99FE713
:1006BC00AA694A4C4B4BDAB101221A60FFF782FD52
:1006CC000646636A9B070DD54FF4FA52464B1B68DE
:1006DC00B3FBF2F3019300BF019B5A1E0192002B56
:1006EC00F9D150E7FFF76EFD801B0228E9D97FE7AF
:1006FC001A60FFF767FD0646636A9F077FF543AFF5
:10070C00FFF760FD801B0228F6D971E7334CE369D3
:10071C00D80024D40127E36943F08053E361E369F3
:10072C0003F080530093009B304E3368D90518D5E5
:10073C00EB68012B26D1236A43F001032362FFF7F8
:10074C0041FD41F288368046236A9B073FD5002F36
:10075C003FF41DAFE36923F08053E36117E70027F3
:10076C00E2E7336843F480733360FFF72BFD804678
:10077C003368DA05DCD4FFF725FDA0EB080064280C
:10078C00F6D935E7ABB9236A41F2883823F0010377
:10079C002362236A23F004032362FFF713FD06464A
:1007AC00236A9807D3D5FFF70DFD801B4045F7D979
:1007BC001EE7052B236A03D143F004032362BAE737
:1007CC0023F001032362236A23F00403B6E7FFF747
:1007DC00F9FCA0EB0800B042B6D909E700100240C2
:1007EC0000004242800442420C0000200070004095
:1007FC00224C636803F00C03082B3FF4E2AE002399
:10080C001F4E022A33602BD1FFF7DCFC074623680E
:10081C0099011FD42B6AB3F5803F05D16268A96892
:10082C0022F400320A436260696A62680B4322F464
:10083C0074121343636001233360FFF7C3FC054656
:10084C0023689A013FF5A7AEFFF7BCFC401B0228BA
:10085C00F6D9CDE6FFF7B6FCC01B0228D7D9C7E600
:10086C00FFF7B0FC054623689B017FF594AEFFF7BC
:10087C00A9FC401B0228F6D9BAE600BF00100240C2
:10088C006000424230B5194B87B002AC03F1100541
:10089C00224618685968083303C2AB421446F7D194
:1008AC0001238DF80430022311498DF805304B6873
:1008BC0003F00C02082A17D1C3F3834206A80244A2
:1008CC00DB0312F8102C0CD54B680A48C3F34043D9
:1008DC00504306AA134413F8143CB0FBF3F007B0D2
:1008EC0030BD05485043FAE70248F8E7081A0008FB
:1008FC000010024000127A0000093D00544A2DE914
:10090C00F0411368054603F007038B420E462AD3C9
:10091C0029688C0734D4CA0747D44D4A136803F0AE
:10092C0007039E42C0F082802A684A4C12F0040FE2
:10093C0040F08780130706D563682A6923F4605357
:10094C0043EAC2036360FFF79DFF6368424AC3F347
:10095C000313D35CD840414B18600020FFF7F0FB29
:10096C000020BDE8F081136823F007030B431360EC
:10097C00136803F007039942CAD00120BDE8F08147
:10098C00344B11F0040F1EBF5A6842F4E0625A60F7
:10099C00080742BF5A6842F460525A605A68A86805
:1009AC0022F0F00202435A60B5E76A68294C012A2A
:1009BC0023681CD113F4003FDFD0636841F2883800
:1009CC0023F0030313436360FFF7FCFB6B680746DC
:1009DC00012B14D1636803F00C03042B9DD0FFF79B
:1009EC00F1FBC01B4045F5D90320BDE8F081022A7C
:1009FC0002D113F0007FDFE713F0020FDCE7022BCC
:100A0C000FD1636803F00C03082B86D0FFF7DAFBD9
:100A1C00C01B4045F5D9E7E7FFF7D4FBC01B4045A9
:100A2C00E2D8636813F00C0FF6D176E7136823F065
:100A3C00070333431360136803F007039E429CD1F2
:100A4C0072E76368E96823F4E0630B43636071E762
:100A5C0000200240001002401B1A00080C0000206D
:100A6C00044B054A5B68C3F30223D35C034A10684A
:100A7C00D8407047001002402B1A00080C000020D0
:100A8C00044B054A5B68C3F3C223D35C034A10686A
:100A9C00D8407047001002402B1A00080C000020B0
:100AAC00036A70B523F001030362036A4468826928
:100ABC000D6822F073022A438D6823F002032B4346
:100ACC000A4DA8420BD1CD6823F008032B438E6945
:100ADC004D6924F44074354323F004032C434460E3
:100AEC0082614A684263036270BD00BF002C014002
:100AFC00036A70B523F480730362036A4468C269A5
:100B0C000D6822F073022A438D6823F4007343EAC4
:100B1C0005230B4DA8420DD1CD6823F4006343EAA5
:100B2C0005238E694D6924F44054354323F48063C6
:100B3C0044EA05144460C2614A68C263036270BD32
:100B4C00002C0140036A30B523F480530362036A1E
:100B5C004468C2690D6822F4E64242EA05228D68B7
:100B6C0023F4005343EA0533064DA84202BF4D69F6
:100B7C0024F4804444EA85144460C2614A680264E7
:100B8C00036230BD002C014003680020DA6842F09B
:100B9C000102DA601A6842F001021A60704770476D
:100BAC0090F83C3070B5012B4FF002031CD00122A1
:100BBC0080F83D30036880F83C209A6822F47F422C
:100BCC0022F077029A600A68402A79D019D8102A44
:100BDC0000F093800AD8002A00F08980012380F865
:100BEC003D30002380F83C30184670BD202A00F0C0
:100BFC008A80302AF2D19A6822F0700242F03702D1
:100C0C0036E0702A36D01BD8502A42D0602AE5D163
:100C1C001C6A4D6824F01004CE681C6299691A6A2B
:100C2C0021F4704122F0A00242EA051241EA063199
:100C3C0099611A629A6822F0700242F0670217E01A
:100C4C00B2F5805F11D0B2F5005FC7D18A684D68EC
:100C5C009C68C9682A4324F47F4442EA0122224357
:100C6C009A609A6842F4804202E09A6822F0070285
:100C7C009A60B3E78A684D689C68C9682A4324F473
:100C8C007F4442EA012222439A609A6842F077023A
:100C9C00EEE74C68CE68196A1D6A21F00A0125F04E
:100CAC0001051D629A69214322F0F00242EA061204
:100CBC009A6119629A6822F0700242F05702D7E7E3
:100CCC004C68CE68196A1D6A21F00A0125F00105ED
:100CDC001D629A69214322F0F00242EA06129A61DF
:100CEC0019629A6822F0700242F04702C0E79A68D3
:100CFC0022F0700242F00702BAE79A6822F0700202
:100D0C0042F01702B4E79A6822F0700242F0270210
:100D1C00AEE700001A4A036890420AD0B0F1804F47
:100D2C0007D0A2F59432904203D002F58062904233
:100D3C0015D14A6823F070031343114A90420AD02C
:100D4C00B0F1804F07D0A2F59432904203D002F557
:100D5C008062904203D1CA6823F4407313434A69FA
:100D6C0023F08003134303608B68C3620B688362B8
:100D7C00034B984204BF0B69036301234361704723
:100D8C00002C014010B50446A0B190F83D3003F0A2
:100D9C00FF021BB980F83C2000F09CFC0223206869
:100DAC0084F83D30211DFFF7B5FF0123002084F8A6
:100DBC003D3010BD012010BD10B50446A0B190F817
:100DCC003D3003F0FF021BB980F83C20FFF7E7FE33
:100DDC000223206884F83D30211DFFF79BFF01237F
:100DEC00002084F83D3010BD012010BD036A70B5A1
:100DFC0023F010030362036A446882690D6822F4CD
:100E0C00E64242EA05228D6823F0200343EA0513EB
:100E1C000B4DA8420DD1CD6823F0800343EA051396
:100E2C008E694D6924F44064354323F0400344EA51
:100E3C008504446082614A688263036270BD00BFAE
:100E4C00002C014038B590F83C300446012B4FF093
:100E5C00020025D0012384F83D0084F83C300C2A94
:100E6C0018D8DFE802F0071717171E1717172F17D8
:100E7C00171740002068FFF713FE236809699A6969
:100E8C0042F008029A619A6922F004029A619A6906
:100E9C000A439A610123002084F83D3084F83C0019
:100EAC0038BD2068FFF7A2FF236809699A6942F4EC
:100EBC0000629A619A6922F480629A619A6942EAA4
:100ECC000122E6E72068FFF713FE23680969DA6957
:100EDC0042F00802DA61DA6922F00402DA61DA69B6
:100EEC000A43DA61D6E72068FFF72CFE236809690C
:100EFC00DA6942F40062DA61DA6922F48062DA615A
:100F0C00DA6942EA0122ECE710B50124036A8C404D
:100F1C0023EA04030362036A8A401A43026210BD87
:100F2C0010B5044601220068FFF7EEFF2368064A5D
:100F3C000020934202BF5A6C42F400425A641A6871
:100F4C0042F001021A6010BD002C014010B504469D
:100F5C0000220068FFF7D8FF2368124A93420DD194
:100F6C0041F21112196A114208D140F24442196A35
:100F7C00114202BF5A6C22F400425A6441F211121F
:100F8C00196A114208D140F24442196A114202BF57
:100F9C001A6822F001021A600123002084F83D3007
:100FAC0010BD00BF002C014010B50424036A8C4016
:100FBC0023EA04030362036A8A401A43026210BDE7
:100FCC0010B5044604220068FFF7EEFF23680020EA
:100FDC005A6C42F400425A641A6842F001021A60D8
:100FEC0010BD10B5044600220068FFF7DDFF41F28A
:100FFC0011122368196A114208D140F24442196A4D
:10100C00114202BF5A6C22F400425A6441F211128E
:10101C00196A114208D140F24442196A114202BFC6
:10102C001A6822F001021A60002010BDFFF7D9BF28
:10103C0090F83C30012B1FD0CB688A6823F44073A6
:10104C0013434A6823F4806313430A6823F4006350
:10105C0013430A6923F4805313434A6923F400535E
:10106C0013438A6923F440431343026853640023F7
:10107C0080F83C30184670470220704790F83C309E
:10108C0010B5012B4FF0020318D080F83D300368E7
:10109C000C685A68496822F070025A605A682243F8
:1010AC005A609A6822F080029A609A680A439A60A1
:1010BC00012380F83D30002380F83C30184610BDE9
:1010CC002DE9F0470568C2682B69016923F4405388
:1010DC0013432B618368EA680B43416922F4B052D5
:1010EC0022F00C020B431343EB606B69826923F40F
:1010FC00407313436B61404B81469D424FF0190482
:10110C0046D1FFF7BDFC04FB00F3D9F804604FF0A7
:10111C006408B600B3FBF6F3B3FBF8F31E01FFF75C
:10112C00AFFC6043D9F804309B00B0FBF3F7FFF73A
:10113C00A7FC6043D9F804309B00B0FBF3F3B3FB7E
:10114C00F8F308FB13731B013233B3FBF8F303F012
:10115C00F007FFF795FC6043D9F804209200B0FB30
:10116C00F2FAFFF78DFC6043D9F804309B00B0FB1A
:10117C00F3F3B3FBF8F308FB13A31B013233B3FBFC
:10118C00F8F303F00F033B433344AB60BDE8F08747
:10119C00FFF766FC04FB00F3D9F804604FF0640819
:1011AC00B600B3FBF6F3B3FBF8F31E01FFF758FCE4
:1011BC006043D9F804309B00B0FBF3F7FFF750FC09
:1011CC006043D9F804309B00B0FBF3F3B3FBF8F3A6
:1011DC0008FB13731B013233B3FBF8F303F0F00776
:1011EC00FFF73EFC6043D9F804209200B0FBF2FA02
:1011FC00FFF736FCB7E700BF00380140F8B50446EE
:10120C000E4617461D4621680B6836EA030301D1CA
:10121C000020F8BD6B1CF7D095B923680320DA6861
:10122C0022F4D072DA605A6922F001025A6120234A
:10123C0084F8393084F83A30002384F83830F8BD1B
:10124C00FEF7C0FFC01B8542DDD2E6E710B50446B1
:10125C0040B390F8393003F0FF021BB980F8382006
:10126C0000F092FA2423226884F83930D36820469F
:10127C0023F40053D360FFF723FF236800201A697F
:10128C0022F490421A615A6922F02A025A61DA68F1
:10129C0042F40052DA602023E06384F8393084F899
:1012AC003A3010BD012010BD2DE9F0411F4690F8D9
:1012BC003A300446202B0D46904651D100294CD093
:1012CC00002A4AD090F83830012B49D0012380F8FD
:1012DC0038300023C363222380F83A30FEF772FFC4
:1012EC000646A4F82C80A4F82E80E08D80B230B98C
:1012FC00202384F8380084F83A30BDE8F081E38D7F
:10130C003246013B9BB2E385A3682021B3F5805F95
:10131C0020463B4612D1FFF771FF10B10320BDE808
:10132C00F081236822695B6822B9C3F3080325F8AE
:10133C00023BDAE7DBB225F8013BD6E7FFF75EFFAD
:10134C000028EBD1236821696A1C5B6811B92B70EA
:10135C001546CAE703F07F03F9E70120BDE8F081E9
:10136C000220BDE8F08100B591B02822002106A82A
:10137C0000F0E0FA1422002101A800F0DBFA0223AD
:10138C00069301230A93102306A80B93FFF7EEF89C
:10139C0000210F2301A8019302910391049105915F
:1013AC00FFF7ACFA11B05DF804FB0000042210B595
:1013BC0088B00A230DEB02011248FFF775FFF8B94C
:1013CC009DF806300D2B1BD19DF807400A2C17D128
:1013DC000D4B9DF90400224602A9187000F0A8FAE2
:1013EC000A4B9DF80500224605A9187000F0A0FADA
:1013FC0005A902A800F0A6FA054902A800F0A2FA75
:10140C0008B010BD880000202C000020080000202F
:10141C00181A000810B5284B1B788C2B1BD941F2DD
:10142C00040118207F3B00FB0313244C002122688D
:10143C00204653639363FFF7F9FD04212046FFF721
:10144C00F5FD00212046FFF76BFD2046BDE810405E
:10145C000421FFF765BD712B1CD841F20401182043
:10146C00C3F17F0300FB0313144C002122682046B8
:10147C0053639363FFF76AFD04212046FFF766FD73
:10148C0000212046FFF79CFD2046BDE810400421BA
:10149C00FFF796BD00210948FFF758FD04210748C6
:1014AC00FFF754FD00210548FFF7C0FDBDE81040D3
:1014BC0004210248FFF7BABD08000020C800002034
:1014CC0000B597B0FEF760FEFFF74DFF4A4B0024C6
:1014DC009A69002142F004029A619A69474D02F020
:1014EC0004020092009A9A694FF4804642F0080276
:1014FC009A6110229B690DEB020003F00803019323
:10150C00019B00F017FA1C22214608A802940394B0
:10151C0000F010FA1C2221460FA800F00BFA384BF1
:10152C00284685E818004FF4FA53AC60EB602C6148
:10153C006C61AC61FFF726FC4FF4805304A928467C
:10154C000493FFF72DFB2846FFF736FC02A928462B
:10155C0002940394FFF792FD6023089341F28833C1
:10156C00224608A9284609930A940B940C940D94CE
:10157C000E94FFF767FC4FF47A73042208A92846EF
:10158C000993FFF75FFC4FF400530FA928461493FF
:10159C000F9410941194129413941596FFF748FD20
:1015AC00284600F0ABF84FF416531648164A8460E0
:1015BC0080E80C000C23C460436104618461C46145
:1015CC00FFF744FE11481249124B846080E80A0070
:1015DC00C460066144618461C4610462FEF746FF25
:1015EC002846FFF7D1FAFFF7E1FEFFF713FF0120C2
:1015FC00FEF7EEFDF7E700BF00100240C800002028
:10160C00002C0140880000200038014034000020EC
:10161C0000540040801A06000E4B82B09A6942F0CA
:10162C0001029A619A6902F001020092009ADA6949
:10163C0042F08052DA61DB69074A03F08053019370
:10164C00019B536823F0E06343F00073536002B0D6
:10165C00704700BF001002400000014010B5044666
:10166C0086B01022002102A800F064F92268154B04
:10167C009A4224D1144C02A9A369144843F00803DC
:10168C00A361A36903F008030093009B4FF440731C
:10169C0002931223039303230593FEF707FE0C4AD0
:1016AC00536843F0E06343F002035360E36943F48F
:1016BC000013E361E36903F400130193019B06B08B
:1016CC0010BD00BF0054004000100240000C01404F
:1016DC00000001400268084B82B09A420AD103F51F
:1016EC0064439A6942F400629A619B6903F4006353
:1016FC000193019B02B07047002C014010B50446C9
:10170C0086B01022002102A800F014F922681A4BAE
:10171C009A422ED103F564439A69022442F00402E2
:10172C009A619A6902A902F004020092009A9A69DD
:10173C00124842F008029A619B69039403F0080373
:10174C000193019B4FF4607305940293FEF7AEFD79
:10175C00012302A90A48029303940594FEF7A6FDFF
:10176C00084A536823F0C00343F0E06343F040039E
:10177C00536006B010BD00BF002C014000080140B2
:10178C00000C01400000014010B5044686B0102248
:10179C00002102A800F0CEF82268194B9A422DD1F4
:1017AC0003F558439A6902A942F480429A619A69F6
:1017BC00144802F480420092009A9A6942F008029E
:1017CC009A619B6903F008030193019B40230293E8
:1017DC000223039303230593FEF768FD80230293F2
:1017EC00002302A9074803930493FEF75FFD064A02
:1017FC00536843F0E06343F00403536006B010BD3C
:10180C0000380140000C0140000001407047FEE729
:10181C00FEE7FEE7FEE7704770477047FEF7C6BC71
:10182C000F4B1A6842F001021A6059680D4A0A40BF
:10183C005A601A6822F0847222F480321A601A6894
:10184C0022F480221A605A6822F4FE025A604FF485
:10185C001F029A604FF00062034B9A60704700BF02
:10186C00001002400000FFF800ED00E0002103E052
:10187C000B4B5B58435004310A480B4B42189A42AD
:10188C00F6D30A4A02E0002342F8043B084B9A4282
:10189C00F9D3FFF7C5FF00F00FF8FFF711FE704703
:1018AC00601A00080000002010000020100000202A
:1018BC0008010020FEE7000070B500250C4E0D4C11
:1018CC00A41BA410A54209D100F08CF800250A4EE7
:1018DC000A4CA41BA410A54205D170BD56F82530A6
:1018EC0098470135EEE756F8253098470135F2E771
:1018FC00581A0008581A0008581A00085C1A0008F0
:10190C00931E222B10B50C4604D900231C460B70D9
:10191C00204610BD0A2A09D1002807DA2D230B70A6
:10192C0001214042214400F01DF8F1E70021F9E7C4
:10193C00FFF7E6BF03460244934200D1704703F819
:10194C00011BF9E7024610B513461C780132002C36
:10195C00FAD1013B11F8012B03F8012F002AF9D120
:10196C0010BD0000F0B58BB003460F466D461C4C05
:10197C0004F1200E2E4620686168083403C67445B5
:10198C003546F7D1217920683171911E22293060BA
:10199C004FF0000104D939700F4638460BB0F0BD3A
:1019AC00781E0646B3FBF2F502FB15330DF1280E3B
:1019BC00734413F8283C4C1C06F8013F2B4665B9C0
:1019CC003D557A18CC1AA342E7DA447815780133DE
:1019DC0000F8015F02F80149F4E72146E2E700BF95
:1019EC00331A0008F8B500BFF8BC08BC9E46704717
:0C19FC00F8B500BFF8BC08BC9E46704760
:101A080002030405060708090A0B0C0D0E0F101037
:101A18000D0A000000000000000000010203040697
:101A28000708090000000001020304303132333492
:101A380035363738396162636465666768696A6B29
:101A48006C6D6E6F707172737475767778797A00D1
:041A58003101000850
:041A5C000D01000870
:101A600001000000100000007F00000000A24A04F6
:04000005080018795E
:00000001FF
